:0200000480007A
:100000006F000005732F2034930F80006308FF03F7
:10001000930F90006304FF03930FB0006300FF038E
:10002000130F000063040F0067000F00732F2034CC
:1000300063540F006F00400093E19153171F0000BD
:1000400023223FFC171F000023200FFC6FF01FFF2F
:100050009300000013010000930100001302000050
:100060009302000013030000930300001304000038
:100070009304000013050000930500001306000020
:100080009306000013070000930700001308000008
:10009000930800001309000093090000130A0000F0
:1000A000930A0000130B0000930B0000130C0000D8
:1000B000930C0000130D0000930D0000130E0000C0
:1000C000930E0000130F0000930F0000732540F102
:1000D0006310050097020000938202017390523072
:1000E000735044749702000093820201739052305F
:1000F00073500018970200009382020273905230EE
:10010000B70200809382F2FF7390023B9302F001EA
:100110007390023A7350403097020000938242017C
:100120007390523073502030735030309301000080
:1001300097020000938242ED739052301305100035
:100140001315F501634C05000F00F00F930110002B
:100150009308D0051305000073000000930200000F
:10016000638A020073905210B7B20000938292101B
:100170007390223073500030970200009382420146
:1001800073901234732540F17300203093012000E6
:10019000B70001FF938000F013010000339720485F
:1001A000B70301FF938303F06318775E9301300078
:1001B000B700FF009380F00F130110003397204821
:1001C000B703FF009383D30F6318775C930140005C
:1001D000B70001FF938000F013018000339720489F
:1001E000B70301FF938303E06318775A930150002C
:1001F000B710F00F938000FF1301E0003397204801
:10020000B713F00F938303FF6318775893016000CF
:10021000B710F00F938000FF1301B001339720480F
:10022000B713F007938303FF6318775693017000A9
:100230009300F0FF13010000339720489303E0FF81
:10024000631C7754930180009300F0FF13011000AA
:10025000339720489303D0FF6310775493019000A5
:100260009300F0FF13017000339720489303F0F7D9
:10027000631477529301A0009300F0FF1301E00094
:1002800033972048B7C3FFFF9383F3FF631677507C
:100290009301B0009300F0FF1301B00133972048A1
:1002A000B70300F89383F3FF6318774E9301C00000
:1002B000B7202121938010121301000033972048AA
:1002C000B7232121938303126318774C9301D00045
:1002D000B72021219380101213011000339720487A
:1002E000B7232121938313126318774A9301E00007
:1002F000B7202121938010121301700033972048FA
:10030000B723212193831312631877489301F000D8
:10031000B7202121938010121301D0003397204879
:10032000B7032121938313126318774693010001C9
:10033000B7808484938040481301F00133972048AC
:10034000B78384049383434863187744930110016F
:10035000B720212193801012130100FC339720480D
:10036000B72321219383031263187742930120015D
:10037000B720212193801012130110FC33972048DD
:10038000B72321219383131263187740930130011F
:10039000B720212193801012130170FC339720485D
:1003A000B7232121938313126318773E93014001F1
:1003B000B7808484938040481301E0FC3397204841
:1003C000B7838484938343486318773C9301600127
:1003D0009300100013017000B390204893031000A5
:1003E000639C703A93017001B750000093801055E0
:1003F0001301E00033912048B71300009383135595
:10040000631C71389301800193003000B390104851
:10041000930330006392703893019001130200003F
:10042000B70001FF938000F01301000033972048CC
:10043000130307001302120093022000E31252FE7E
:10044000B70301FF938303F0631873349301A00192
:1004500013020000B700FF009380F00F130110009B
:100460003397204813000000130307001302120003
:1004700093022000E31052FEB703FF009383D30FD3
:10048000631C73309301B00113020000B70001FF39
:10049000938000F013018000339720481300000080
:1004A0001300000013030700130212009302200040
:1004B000E31E52FCB70301FF938303E0631E732C1A
:1004C0009301C00113020000B70001FF938000F008
:1004D00013010000339720481302120093022000FA
:1004E000E31452FEB70301FF938303F06316772AE8
:1004F0009301D00113020000B700FF009380F00FBA
:10050000130110001300000033972048130212005B
:1005100093022000E31252FEB703FF009383D30F30
:10052000631C77269301E00113020000B70001FF6E
:10053000938000F0130180001300000013000000FE
:10054000339720481302120093022000E31052FE5A
:10055000B70301FF938303E0631077249301F00155
:1005600013020000B70001FF938000F013000000A9
:100570001301000033972048130212009302200059
:10058000E31252FEB70301FF938303F06316772053
:100590009301000213020000B700FF009380F00FE8
:1005A00013000000130110001300000033972048CF
:1005B0001302120093022000E31052FEB703FF0063
:1005C0009383D30F631A771C930110021302000068
:1005D000B70001FF938000F013000000130000003B
:1005E0001301800033972048130212009302200069
:1005F000E31052FEB70301FF938303E0631E7718F5
:10060000930120021302000013018000B70001FFD4
:10061000938000F0339720481302120093022000C9
:10062000E31452FEB70301FF938303E063167716CA
:1006300093013002130200001301E000B710F00F25
:10064000938000FF1300000033972048130212002C
:1006500093022000E31252FEB713F00F938303FFBF
:10066000631C771293014002130200001301B001D2
:10067000B710F00F938000FF13000000130000007C
:10068000339720481302120093022000E31052FE19
:10069000B713F007938303FF6310771093015002A1
:1006A000130200001301800013000000B70001FFD7
:1006B000938000F033972048130212009302200029
:1006C000E31252FEB70301FF938303E06316770C36
:1006D00093016002130200001301E0001300000008
:1006E000B710F00F938000FF1300000033972048ED
:1006F0001302120093022000E31052FEB713F00F12
:10070000938303FF631A77089301700213020000BA
:100710001301B0011300000013000000B710F00F28
:10072000938000FF339720481302120093022000A9
:10073000E31052FEB713F007938303FF631E7704A1
:10074000930180029300F0003311104893030000DE
:1007500063147104930190029300000233910048E6
:1007600093030002631A71029301A002B3100048C0
:1007700093030000639270029301B0029300004063
:1007800037110000130101803390204893030000CB
:1007900063147000631030020F00F00F63800100DB
:1007A0009391110093E111009308D0051385010086
:1007B000730000000F00F00F930110009308D005A4
:1007C0001305000073000000731000C0000000005B
:1007D0000000000000000000000000000000000019
:1007E0000000000000000000000000000000000009
:0C07F000000000000000000000000000FD
:1010000000000000000000000000000000000000E0
:1010100000000000000000000000000000000000D0
:1010200000000000000000000000000000000000C0
:1010300000000000000000000000000000000000B0
:081040000000000000000000A8
:040000058000000077
:00000001FF
