:0200000480007A
:100000006F000005732F2034930F80006308FF03F7
:10001000930F90006304FF03930FB0006300FF038E
:10002000130F000063040F0067000F00732F2034CC
:1000300063540F006F00400093E19153171F0000BD
:1000400023223FFC171F000023200FFC6FF01FFF2F
:100050009300000013010000930100001302000050
:100060009302000013030000930300001304000038
:100070009304000013050000930500001306000020
:100080009306000013070000930700001308000008
:10009000930800001309000093090000130A0000F0
:1000A000930A0000130B0000930B0000130C0000D8
:1000B000930C0000130D0000930D0000130E0000C0
:1000C000930E0000130F0000930F0000732540F102
:1000D0006310050097020000938202017390523072
:1000E000735044749702000093820201739052305F
:1000F00073500018970200009382020273905230EE
:10010000B70200809382F2FF7390023B9302F001EA
:100110007390023A7350403097020000938242017C
:100120007390523073502030735030309301000080
:1001300097020000938242ED739052301305100035
:100140001315F501634C05000F00F00F930110002B
:100150009308D0051305000073000000930200000F
:10016000638A020073905210B7B20000938292101B
:100170007390223073500030970200009382420146
:1001800073901234732540F17300203093012000E6
:1001900093001000130100003397206893030000C0
:1001A0006312775893013000930010001301100080
:1001B000339720689303300063167756930140000D
:1001C0009300100013017000339720689303100808
:1001D000631A775493015000930010001301E0005C
:1001E00033972068B743000093831300631C775252
:1001F00093016000930010001301F0013397206811
:10020000B703008093831300631E7750930170003F
:100210009300F0FF13010000339720689303E0FF81
:1002200063127750930180009300F0FF13011000D8
:10023000339720689303D0FF6316774E93019000A5
:100240009300F0FF13017000339720689303F0F7D9
:10025000631A774C9301A0009300F0FF1301E000B4
:1002600033972068B7C3FFFF9383F3FF631C774A7C
:100270009301B0009300F0FF1301F0013397206861
:10028000B70300809383F3FF631E77489301C00098
:10029000B7202121938010121301000033972068AA
:1002A000B723212193830312631E77469301D00065
:1002B000B72021219380101213011000339720687A
:1002C000B723212193833312631E77449301E00007
:1002D000B7202121938010121301700033972068FA
:1002E000B72321219383131A631E77429301F000F1
:1002F000B7202121938010121301E000339720686A
:10030000B763212193831312631E77409301000189
:10031000B7202121938010121301F0013397206838
:10032000B72321A193831312631E773E930110011B
:10033000B720212193801012130100FC339720680D
:10034000B723212193830312631E773C930120017D
:10035000B720212193801012130110FC33972068DD
:10036000B723212193833312631E773A930130011F
:10037000B720212193801012130170FC339720685D
:10038000B72321219383131A631E77389301400109
:10039000B7202121938010121301E0FC33972068CD
:1003A000B763212193831312631E77369301600193
:1003B0009300100013017000B3902068930310089D
:1003C0006392703693017001930010001301E000F6
:1003D00033912068B7430000938313006314713492
:1003E0009301800193003000B39010689303B00034
:1003F000639A703293019001130200009300100081
:1004000013017000339720681303070013021200D2
:1004100093022000E31452FE930310086314733018
:100420009301A00113020000930010001301E000EB
:100430003397206813000000130307001302120013
:1004400093022000E31252FEB7430000938313008F
:10045000631A732C9301B001130200009300100083
:100460001301F0013397206813000000130000000F
:10047000130307001302120093022000E31052FE40
:10048000B703008093831300631E73289301C00198
:1004900013020000930010001301700033972068CE
:1004A0001302120093022000E31652FE9303100879
:1004B000631A77269301D001130200009300100005
:1004C0001301E000130000003397206813021200AC
:1004D00093022000E31452FEB743000093831300FD
:1004E000631277249301E0011302000093001000CF
:1004F0001301F0011300000013000000339720687F
:100500001302120093022000E31252FEB703008090
:1005100093831300631877209301F0011302000006
:10052000930010001300000013017000339720683F
:100530001302120093022000E31452FE93031008EA
:100540006312771E93010002130200009300100053
:10055000130000001301E00013000000339720682F
:100560001302120093022000E31252FEB743000070
:10057000938313006318771A93011002130200008B
:100580009300100013000000130000001301F0019D
:10059000339720681302120093022000E31252FEE8
:1005A000B703008093831300631E77169301200224
:1005B00013020000130170009300100033972068AD
:1005C0001302120093022000E31652FE9303100858
:1005D000631A771493013002130200001301E00044
:1005E00093001000130000003397206813021200DC
:1005F00093022000E31452FEB743000093831300DC
:100600006312771293014002130200001301F001FC
:1006100093001000130000001300000033972068BF
:100620001302120093022000E31252FEB70300806F
:10063000938313006318770E930150021302000096
:10064000130170001300000093001000339720681E
:100650001302120093022000E31452FE93031008C9
:100660006312770C93016002130200001301E00093
:10067000130000009300100013000000339720685F
:100680001302120093022000E31252FEB74300004F
:10069000938313006318770893017002130200001C
:1006A0001301F0011300000013000000930010007C
:1006B000339720681302120093022000E31252FEC7
:1006C000B703008093831300631E770493018002B5
:1006D0009300F00033111068B783000063147104B5
:1006E000930190029300000233910068930310027B
:1006F000631A71029301A002B31000689303100003
:10070000639270029301B002930000403711000021
:10071000130101803390206893030000631470007C
:10072000631030020F00F00F6380010093911100FD
:1007300093E111009308D0051385010073000000B8
:100740000F00F00F930110009308D005130500006F
:1007500073000000731000C00000000000000000E3
:100760000000000000000000000000000000000089
:0C0770000000000000000000000000007D
:1010000000000000000000000000000000000000E0
:1010100000000000000000000000000000000000D0
:1010200000000000000000000000000000000000C0
:1010300000000000000000000000000000000000B0
:081040000000000000000000A8
:040000058000000077
:00000001FF
