:0200000480007A
:100000006F000005732F2034930F80006308FF03F7
:10001000930F90006304FF03930FB0006300FF038E
:10002000130F000063040F0067000F00732F2034CC
:1000300063540F006F00400093E19153171F0000BD
:1000400023223FFC171F000023200FFC6FF01FFF2F
:100050009300000013010000930100001302000050
:100060009302000013030000930300001304000038
:100070009304000013050000930500001306000020
:100080009306000013070000930700001308000008
:10009000930800001309000093090000130A0000F0
:1000A000930A0000130B0000930B0000130C0000D8
:1000B000930C0000130D0000930D0000130E0000C0
:1000C000930E0000130F0000930F0000732540F102
:1000D0006310050097020000938202017390523072
:1000E000735044749702000093820201739052305F
:1000F00073500018970200009382020273905230EE
:10010000B70200809382F2FF7390023B9302F001EA
:100110007390023A7350403097020000938242017C
:100120007390523073502030735030309301000080
:1001300097020000938242ED739052301305100035
:100140001315F501634C05000F00F00F930110002B
:100150009308D0051305000073000000930200000F
:10016000638A020073905210B7B20000938292101B
:100170007390223073500030970200009382420146
:1001800073901234732540F17300203093012000E6
:10019000930000001301000033A720209303000008
:1001A0006316774C93013000930010001301100088
:1001B00033A7202093033000631A774A930140004D
:1001C000930030001301700033A720209303D00068
:1001D000631E774893015000930000003781FFFFB2
:1001E00033A72020B783FFFF631277489301600095
:1001F000B70000801301000033A720209303000004
:100200006316774693017000B70000803781FFFFC7
:1002100033A72020B783FFFF631A77449301800040
:1002200093000000378100001301F1FF33A7202065
:10023000B78300009383F3FF631A77429301900022
:10024000B70000809380F0FF1301000033A7202047
:100250009303E0FF631C77409301A000B700008088
:100260009380F0FF378100001301F1FF33A72020B6
:10027000B78300009383D3FF631A773E9301B000E6
:10028000B7000080378100001301F1FF33A7202061
:10029000B78300009383F3FF631A773C9301C00098
:1002A000B70000809380F0FF3781FFFF33A7202045
:1002B000B783FFFF9383E3FF631A773A9301D0007C
:1002C000930000001301F0FF33A720209303F0FFF9
:1002D000631E77389301E0009300F0FF13011000D4
:1002E00033A720209303F0FF631277389301F000C7
:1002F0009300F0FF1301F0FF33A720209303D0FFFA
:1003000063167736930100019300100037010080D7
:100310001301F1FF33A72020B7030080938313005C
:1003200063167734930110019300D0001301B000DD
:10033000B3A0202093035002639A703293012001EE
:100340009300E0001301B00033A12020930370025A
:10035000631E7130930130019300D000B3A01020D0
:100360009303700263947030930140011302000004
:100370009300D0001301B00033A72020130307001F
:100380001302120093022000E31452FE9303500262
:10039000631E732C93015001130200009300E000D0
:1003A0001301B00033A7202013000000130307003F
:1003B0001302120093022000E31252FE9303700214
:1003C0006316732A93016001130200009300F0008A
:1003D0001301B00033A72020130000001300000019
:1003E000130307001302120093022000E31052FED1
:1003F00093039002631C73269301700113020000A3
:100400009300D0001301B00033A720201302120084
:1004100093022000E31652FE9303500263187724E0
:1004200093018001130200009300E0001301B0006B
:100430001300000033A720201302120093022000B3
:10044000E31452FE9303700263127722930190012A
:10045000130200009300F0001301B000130000002D
:100460001300000033A72020130212009302200083
:10047000E31252FE93039002631A771E9301A001C8
:10048000130200009300D000130000001301B0001D
:1004900033A720201302120093022000E31452FE1F
:1004A000930350026314771C9301B0011302000000
:1004B0009300E000130000001301B00013000000DF
:1004C00033A720201302120093022000E31252FEF1
:1004D00093037002631C77189301C001130200009C
:1004E0009300F00013000000130000001301B0009F
:1004F00033A720201302120093022000E31252FEC1
:1005000093039002631477169301D0011302000045
:100510001301B0009300D00033A720201302120073
:1005200093022000E31652FE9303500263107714E7
:100530009301E001130200001301B0009300E000FA
:100540001300000033A720201302120093022000A2
:10055000E31452FE93037002631A77109301F001C3
:10056000130200001301B0009300F000130000001C
:100570001300000033A72020130212009302200072
:10058000E31252FE930390026312770E930100026E
:10059000130200001301B000130000009300D0000C
:1005A00033A720201302120093022000E31452FE0E
:1005B00093035002631C770A930110021302000098
:1005C0001301B000130000009300E00013000000CE
:1005D00033A720201302120093022000E31252FEE0
:1005E0009303700263147708930120021302000042
:1005F0001301B00013000000130000009300F0008E
:1006000033A720201302120093022000E31252FEAF
:1006100093039002631C7704930130029300F0006F
:10062000332110209303F000631271049301400200
:100630009300000233A100209303000463187102A9
:1006400093015002B32000209303000063907002D6
:1006500093016002930000011301E00133A0202008
:100660009303000063147000631030020F00F00F5A
:10067000638001009391110093E111009308D0056C
:1006800013850100730000000F00F00F93011000AC
:100690009308D0051305000073000000731000C01C
:1006A000000000000000000000000000000000004A
:0C06B0000000000000000000000000003E
:1010000000000000000000000000000000000000E0
:1010100000000000000000000000000000000000D0
:1010200000000000000000000000000000000000C0
:1010300000000000000000000000000000000000B0
:081040000000000000000000A8
:040000058000000077
:00000001FF
