:0200000480007A
:100000006F000005732F2034930F80006308FF03F7
:10001000930F90006304FF03930FB0006300FF038E
:10002000130F000063040F0067000F00732F2034CC
:1000300063540F006F00400093E19153171F0000BD
:1000400023223FFC171F000023200FFC6FF01FFF2F
:100050009300000013010000930100001302000050
:100060009302000013030000930300001304000038
:100070009304000013050000930500001306000020
:100080009306000013070000930700001308000008
:10009000930800001309000093090000130A0000F0
:1000A000930A0000130B0000930B0000130C0000D8
:1000B000930C0000130D0000930D0000130E0000C0
:1000C000930E0000130F0000930F0000732540F102
:1000D0006310050097020000938202017390523072
:1000E000735044749702000093820201739052305F
:1000F00073500018970200009382020273905230EE
:10010000B70200809382F2FF7390023B9302F001EA
:100110007390023A7350403097020000938242017C
:100120007390523073502030735030309301000080
:1001300097020000938242ED739052301305100035
:100140001315F501634C05000F00F00F930110002B
:100150009308D0051305000073000000930200000F
:10016000638A020073905210B7B20000938292101B
:100170007390223073500030970200009382420146
:1001800073901234732540F17300203093012000E6
:10019000B70001FF938000F013D7004893030000DD
:1001A0006318772893013000B700FF009380F00FA9
:1001B00013D7104893031000631C77269301400067
:1001C000B70001FF938000F013D78048930310001D
:1001D0006310772693015000B710F00F938000FF53
:1001E00013D7E04893030000631477249301600061
:1001F000B710F00F938000FF13D7B049930310009E
:1002000063187722930170009300F0FF13D7004822
:1002100093031000631E7720930180009300F0FF8A
:1002200013D71048930310006314772093019000B4
:100230009300F0FF13D7704893031000631A771EE2
:100240009301A0009300F0FF13D7E0489303100040
:100250006310771E9301B0009300F0FF13D7B049ED
:10026000930310006316771C9301C000B72021216F
:100270009380101213D7004893031000631A771A63
:100280009301D000B72021219380101213D710487A
:1002900093030000631E77189301E000B72021212B
:1002A0009380101213D770489303000063127718DD
:1002B0009301F000B72021219380101213D7D0486A
:1002C000930310006316771693010001B7808484AE
:1002D0009380404813D7F04993031000631A7714B2
:1002E000930110019300100093D070489303000015
:1002F000639070149301200113020000B70001FF06
:10030000938000F013D780481303070013021200F4
:1003100093022000E31452FE93031000631A73103B
:100320009301300113020000B710F00F938000FF1B
:1003300013D7E04813000000130307001302120054
:1003400093022000E31252FE930300006312730E27
:100350009301400113020000B710F00F938000FFDB
:1003600013D7B04913000000130000001303070067
:100370001302120093022000E31052FE93031000B8
:100380006318730A9301500113020000B70001FFC4
:10039000938000F013D780481302120093022000CC
:1003A000E31652FE93031000631477089301600173
:1003B00013020000B710F00F938000FF130000003D
:1003C00013D7E0481302120093022000E31452FEF8
:1003D00093030000631E7704930170011302000071
:1003E000B710F00F938000FF13000000130000000F
:1003F00013D7B0491302120093022000E31252FEF9
:100400009303100063167702930180019350F04923
:1004100093030000639E700093019001930010020B
:1004200013D040499303000063147000631030023E
:100430000F00F00F638001009391110093E1110010
:100440009308D00513850100730000000F00F00F22
:10045000930110009308D0051305000073000000FD
:10046000731000C000000000000000000000000049
:0C04700000000000000000000000000080
:1010000000000000000000000000000000000000E0
:1010100000000000000000000000000000000000D0
:1010200000000000000000000000000000000000C0
:1010300000000000000000000000000000000000B0
:081040000000000000000000A8
:040000058000000077
:00000001FF
