:0200000480007A
:100000006F000005732F2034930F80006308FF03F7
:10001000930F90006304FF03930FB0006300FF038E
:10002000130F000063040F0067000F00732F2034CC
:1000300063540F006F00400093E19153171F0000BD
:1000400023223FFC171F000023200FFC6FF01FFF2F
:100050009300000013010000930100001302000050
:100060009302000013030000930300001304000038
:100070009304000013050000930500001306000020
:100080009306000013070000930700001308000008
:10009000930800001309000093090000130A0000F0
:1000A000930A0000130B0000930B0000130C0000D8
:1000B000930C0000130D0000930D0000130E0000C0
:1000C000930E0000130F0000930F0000732540F102
:1000D0006310050097020000938202017390523072
:1000E000735044749702000093820201739052305F
:1000F00073500018970200009382020273905230EE
:10010000B70200809382F2FF7390023B9302F001EA
:100110007390023A7350403097020000938242017C
:100120007390523073502030735030309301000080
:1001300097020000938242ED739052301305100035
:100140001315F501634C05000F00F00F930110002B
:100150009308D0051305000073000000930200000F
:10016000638A020073905210B7B20000938292101B
:100170007390223073500030970200009382420146
:1001800073901234732540F17300203093012000E6
:10019000B70001FF938000F037110F0F1301F1F04A
:1001A00033F72040B7F300F0631277489301300033
:1001B000B710F00F938000FF37F1F0F01301010F3B
:1001C00033F72040B713000F938303F06310774693
:1001D00093014000B700FF009380F00F37110F0F1D
:1001E0001301F1F033F72040B703F0009383030FBE
:1001F000631E774293015000B7F00FF09380F00038
:1002000037F1F0F01301010F33F72040B7030F006F
:100210009383F300631C774093016000B70001FFF4
:10022000938000F037110F0F1301F1F0B3F020406D
:10023000B7F300F0639C703E93017000B710F00FAD
:10024000938000FF37F1F0F01301010F33F12040EC
:10025000B713000F938303F0631A713C930180007E
:10026000B70001FF938000F0B3F01040930300004B
:10027000639E703A9301900013020000B70001FFE3
:10028000938000F037110F0F1301F1F033F7204086
:10029000130307001302120093022000E31052FE22
:1002A000B7F300F0631473389301A0001302000049
:1002B000B710F00F938000FF37F1F0F01301010F3A
:1002C00033F720401300000013030700130212004D
:1002D00093022000E31E52FCB713000F938303F038
:1002E000631673349301B00013020000B700FF00DF
:1002F0009380F00F37110F0F1301F1F033F7204007
:100300001300000013000000130307001302120083
:1003100093022000E31C52FCB703F0009383030F09
:10032000631673309301C00013020000B70001FF91
:10033000938000F037110F0F1301F1F033F72040D5
:100340001302120093022000E31252FEB7F300F0F2
:10035000631E772C9301D00013020000B710F00F3A
:10036000938000FF37F1F0F01301010F130000003C
:1003700033F720401302120093022000E31052FED4
:10038000B713000F938303F06312772A9301E00001
:1003900013020000B700FF009380F00F37110F0F1A
:1003A0001301F1F0130000001300000033F72040A8
:1003B0001302120093022000E31E52FCB703F00068
:1003C0009383030F631477269301F0001302000058
:1003D000B70001FF938000F01300000037110F0FEA
:1003E0001301F1F033F720401302120093022000B2
:1003F000E31052FEB7F300F0631A77229301000175
:1004000013020000B710F00F938000FF13000000EC
:1004100037F1F0F01301010F1300000033F7204013
:100420001302120093022000E31E52FCB713000FC8
:10043000938303F0631C771E9301100113020000E5
:10044000B700FF009380F00F1300000013000000BE
:1004500037110F0F1301F1F033F720401302120090
:1004600093022000E31E52FCB703F0009383030FB6
:10047000631E771A930120011302000037110F0F3A
:100480001301F1F0B70001FF938000F033F7204033
:100490001302120093022000E31252FEB7F300F0A1
:1004A00063167718930130011302000037F1F0F062
:1004B0001301010FB710F00F938000FF130000002D
:1004C00033F720401302120093022000E31052FE83
:1004D000B713000F938303F0631A7714930140015D
:1004E0001302000037110F0F1301F1F0B700FF00E6
:1004F0009380F00F130000001300000033F720403A
:100500001302120093022000E31E52FCB703F00016
:100510009383030F631C77109301500113020000B3
:1005200037110F0F1301F1F013000000B70001FFA6
:10053000938000F033F72040130212009302200052
:10054000E31052FEB7F300F06312770E93016001DF
:100550001302000037F1F0F01301010F1300000047
:10056000B710F00F938000FF1300000033F7204016
:100570001302120093022000E31E52FCB713000F77
:10058000938303F06314770A930170011302000050
:1005900037110F0F1301F1F01300000013000000DA
:1005A000B700FF009380F00F33F7204013021200D2
:1005B00093022000E31E52FCB703F0009383030F65
:1005C0006316770693018001B70001FF938000F066
:1005D0003371104093030000631A7104930190017A
:1005E000B700FF009380F00F33F10040B703FF0026
:1005F0009383F30F631C71029301A001B370004059
:1006000093030000639470029301B001B7101111BD
:1006100093801011372122221301212233F0204030
:100620009303000063147000631030020F00F00F9A
:10063000638001009391110093E111009308D005AC
:1006400013850100730000000F00F00F93011000EC
:100650009308D0051305000073000000731000C05C
:10066000000000000000000000000000000000008A
:0C0670000000000000000000000000007E
:1010000000000000000000000000000000000000E0
:1010100000000000000000000000000000000000D0
:1010200000000000000000000000000000000000C0
:1010300000000000000000000000000000000000B0
:081040000000000000000000A8
:040000058000000077
:00000001FF
