:0200000480007A
:100000006F00C0006F20802C6F20402C93000000F8
:10001000130100009301000013020000930200008E
:100020001303000093030000130400009304000076
:10003000130500009305000013060000930600005E
:100040001307000093070000130800009308000046
:100050001309000093090000130A0000930A00002E
:10006000130B0000930B0000130C0000930C000016
:10007000130D0000930D0000130E0000930E0000FE
:10008000130F0000930F00009702000093820201FB
:10009000739052307350447497020000938202F7B9
:1000A0007390523017D100001301C1E3F32240F1E5
:1000B0009392C2003301510073100134EF20901D60
:1000C000173500001305859E6F20007C8332851054
:1000D000739012148330850003310501833185014B
:1000E000033205028332850203330503833385031C
:1000F00003340504833485048335850503360506FA
:1001000083368506033705078337850703380508D7
:10011000833885080339050983398509033A050AB7
:10012000833A850A033B050B833B850B033C050C97
:10013000833C850C033D050D833D850D033E050E77
:10014000833E850E033F050F833F850F033505056D
:10015000730020107311011423341100233C31006B
:10016000233041022334510223386102233C7102BF
:1001700023308104233491042338A104233CB104A7
:100180002330C1062334D1062338E106233CF1068F
:10019000233001092334110923382109233C310973
:1001A0002330410B2334510B2338610B233C710B5B
:1001B0002330810D2334910D2338A10D233CB10D43
:1001C0002330C10F2334D10F2338E10F233CF10F2B
:1001D000F312011423385100F32200102330511080
:1001E000F322101423345110F32230142338511009
:1001F000F3222014233C5110130501006F20003B13
:1010000000000000000000000000000000000000E0
:1010100000000000000000000000000000000000D0
:1010200000000000000000000000000000000000C0
:1010300000000000000000000000000000000000B0
:081040000000000000000000A8
:10200000B3E7C500B367F50093F77700B306C500E3
:10201000638407023386C50093070500637ED502FB
:1020200003C705009385150093871700A38FE7FE6C
:10203000E318B6FE67800000E37ED5FE9307050037
:1020400003B70500938787009385850023BCE7FECF
:10205000E3E8D7FE6780000067800000130101FFFE
:10206000B367C500233081002334110093F7770054
:10207000130405003307C500638207026376E50099
:1020800093F5F50FEFF09FFD8330810013050400F9
:10209000033401001301010167800000B70701014B
:1020A000938717109397070193871710939707014A
:1020B00093F5F50F93871710B385F502E376E5FCEA
:1020C000930705009387870023BCB7FEE3ECE7FE88
:1020D0008330810013050400033401001301010162
:1020E0006780000083470500638E070093070500A3
:1020F00003C7170093871700E31C07FE3385A7402B
:10210000678000001305000067800000834705001A
:10211000938515001305150003C7F5FF638A0700B3
:10212000E386E7FE1B8507003B05E540678000006E
:10213000130500006FF05FFFB367B50093F77700FA
:10214000639E0702137886FF330805016378050351
:10215000930705006F000001938787009385850032
:1021600063F8070183B6070003B70500E386E6FEC0
:102170003385A7403306A640138507003386C50084
:102180006F00400103C705008347F5FF93851500E5
:10219000639AE70013051500E396C5FE13050000DA
:1021A000678000003B85E7406780000093070500DB
:1021B00003C705009387170093851500A38FE7FEDB
:1021C000E31807FE6780000003470500930600023E
:1021D000930705006318D70003C7170093871700FC
:1021E000E30CD7FE9306D002630ED7049306B00229
:1021F0006300D70483C6070093050000638C0604C0
:102200001305000093871700131725001B8606FD92
:1022100083C607003307A700131717003305E6002E
:10222000E39206FE638A05023305A0406780000042
:1022300083C6170093871700638E0600930500007E
:102240006FF01FFC83C617009305100093871700DB
:10225000E39806FA13050000678000008347050035
:10226000638007049305101017F7FFFF130787D942
:10227000939505030336070013051500B3E6B70071
:10228000630A060097F7FFFF23BE07DA83370700CC
:10229000E39A07FE2330D70083470500E39C07FC41
:1022A0006780000017F7FFFF1307C7D583370700C4
:1022B000638A070097F7FFFF23B607D88337070025
:1022C000E39A07FE2330A7006F000000130101FF0F
:1022D0001305903423341100EFF0DFFC130101FEED
:1022E0001306810013077101130890006F0080002E
:1022F000138707009376F500938506009307700512
:102300006364D80093070003BB87B7002300F7007E
:10231000135545009307F7FFE31CE6FC8347810054
:10232000230C0100638207041305101093060600B6
:1023300017F7FFFF130707CD1315050383350700B4
:102340009386160033E6A700638A050097F7FFFF20
:1023500023BA07CE83370700E39A07FE83C7060038
:102360002330C700E39C07FC1301010267800000D3
:10237000130101FB9307100037F7FFFF2322F10041
:102380002334110423340100B306E500B7E703004A
:1023900023308104233C9102233821032334310369
:1023A00063F6F61A9359C500938409601739000043
:1023B000130949C593973400B307F90083B70700A1
:1023C0003374E500639A071017770000130707C4FA
:1023D00023304103033A0700233C510163040A1AE6
:1023E00083378A009776000083B6C6C12330F70092
:1023F0006388D71413064100930581001305040078
:10240000833A0A00EF00C069631C051093D6CA0026
:102410009396A60093E6F60193973400B307F9006C
:1024200013E7060C23B0E70073000412972700009F
:10243000938747BD93994900B387370103B70700D6
:10244000631C071403370A00B705040023B0E70034
:1024500003378A0023B4E700F3A50510B707E0FFB0
:10246000B307F40037160000130704003386C700D3
:1024700003B3070083B8870003B8070103B58701DA
:10248000233067002334170123380701233CA700BA
:102490009387070213070702E39CC7FC739005109C
:1024A00093973400B304F90023B0D40073000412EE
:1024B0000F1000000334010483308104033A010249
:1024C000833A810183348103033901038339810213
:1024D000130101056780000013F70704630E07046A
:1024E00013F70708631207081307F00093E70708BC
:1024F000639CE50693943400B304990023B0F40080
:102500007300041203340104833081048334810393
:10251000033901038339810213010105678000003B
:1025200083360A008337810093D6C6009396A600AF
:10253000B3E6F6006FF05FEE93E707046FF09FFBE2
:102540009777000023B007AC6FF0DFEA17150000A3
:102550001305C5AC23304103233C5101EFF01FD0DC
:1025600013053000EFF01FD417150000130585AFD9
:1025700023304103233C5101EFF05FCE13053000BF
:10258000EFF05FD217150000130545B2EFF01FCD35
:1025900013053000EFF01FD117150000130585B2A9
:1025A000EFF0DFCB13053000EFF0DFCF130101F8C0
:1025B00023388106233C110613040500EF00C04DAB
:1025C0006312050E83358411930780006386F5122C
:1025D00093072000638AF502938745FF13071000D5
:1025E0006376F7009307F0006398F5240335041130
:1025F000EFF01FD81305040003340107833081076F
:10260000130101086FD09FAC033784109377370014
:102610006394070A03270700EF0780007310300058
:1026200083A707002334910623302107233C31057B
:10263000233841052334510523306105233C7103C0
:1026400023388103233491032330A103233CB101B8
:102650006300F70613051010930710049716000087
:10266000938646AA17F7FFFF1307C79913150503AB
:10267000833507009386160033E6A700638A0500BA
:1026800097F7FFFF23B0079C83370700E39A07FE05
:1026900083C706002330C700E39C07FC1305300006
:1026A000EFF05FC013050400EFD05FA26FF09FF161
:1026B00013051000EFF01FBF17150000130585AEBE
:1026C0002334910623302107233C3105233841056B
:1026D0002334510523306105233C710323388103E2
:1026E000233491032330A103233CB101EFF01FB742
:1026F00013053000EFF01FBB832704052334910638
:10270000233841052334510523306105233C7103EF
:1027100023388103233491032330A103233021077D
:10272000233C3105233CB1012334F100B7140000F0
:10273000972A0000938A0A8D173D0000130D8D8C97
:10274000B70C0400370CE0FF177A0000130A8A8BDD
:10275000977B0000938B8B8B37FB030093D7C400D0
:102760001399470033872A0103370700630C0708D2
:102770009387076093973700B307FD0083B907007D
:1027800093F709046380070AF3AD0C1033848401C6
:10279000371600009305040013850400EFF0DF995D
:1027A0006304050493F909086386090CB716000051
:1027B0001387040093070400B386D400033807008E
:1027C00003358700833507010336870123B00701EE
:1027D00023B4A70023B8B70023BCC7001307070220
:1027E00093870702E31CD7FCB3872A0173900D106F
:1027F00003370A0023B00700630007022334F70001
:102800002330FA00B7170000B384F400E39864F5AE
:1028100003358100EFF01FA92330FA0023B0FB003D
:102820006FF05FFE171500001305C590EFF01FA3B2
:1028300013053000EFF01FA71715000013050599C9
:102840002334910623302107233C310523384105E9
:102850002334510523306105233C71032338810360
:10286000233491032330A103233CB101EFF01F9FD8
:102870006FF0DFE2171500001305458FEFF01F9E84
:1028800013053000EFF01FA2F32740F16390071A01
:10289000974700009387077793D7C70097350000C5
:1028A00093854576130101ED1758000013088875CC
:1028B0009397A700233081122334111293D6C500B9
:1028C0001357C80093E71700972800009388887370
:1028D0001304050023BCF5FE9396A6001317A7006A
:1028E000370500209307F0FF93E616001305F50C5B
:1028F0001367170013D6C8009397F70323B0D800C7
:10290000233CA8FE23B0E500B367F60073900718D8
:10291000732700186396E716930700801307F001EA
:1029200093D7B7609702000093824201F39252302E
:102930007390073B7310073A739052309306F0BFC1
:102940009396560197E7FFFF93870781B387D700D8
:1029500073905710F3270034B387D7007390071490
:10296000B7B700009B87071073902730B7E70100C7
:102970009B87076073900730735040301727000023
:10298000130747A79387063E1308F0BFB306D70087
:10299000B307F700B70808001318580117660000BE
:1029A0002336D666172300001303C3E3976600009F
:1029B00023BAF6649388F8039307300213080801DA
:1029C00013D61700B3861701B347F600B305070106
:1029D0009396C600939757002330D7002334B7004F
:1029E00093F7070213070701B367F600E31AE3FC46
:1029F000130600129305000013050100972700003D
:102A000023BE07DCEFF08FE5B70700803304F40046
:102A10001305010023348110EFD04FEB8330811276
:102A2000033401121301011367800000B737C20499
:102A3000B70508001306100093061000938757147B
:102A40009385C5FF1316F6019396E6036F00C00148
:102A50002F20070013D71700B3C7E7009397E703AA
:102A6000B3F7D700B3E7E70033F7B70013F5170064
:102A70003307C700E31E05FC032007006FF09FFD2E
:102A80001705000013058577EFF04FFD13053000A3
:102A9000EFF05F8167800000130500006780000091
:102AA00013050000678000009301200093000000E0
:102AB0001301000033F7200A93030000631E7752CE
:102AC00093013000930010001301100033F7200A27
:102AD000930310006312775293014000930030007B
:102AE0001301700033F7200A9303700063167750C8
:102AF00093015000930070001301300033F7200A57
:102B000093037000631A774E9301600093000000F6
:102B1000370102001B01F1FF1311F10033F7200A06
:102B2000B70302009B83F3FF9393F3006316774C84
:102B3000930170009B0010009390F00113010000BE
:102B400033F7200A9B0310009393F3016316774A2F
:102B5000930180009B0010009390F0013701020068
:102B60001B01F1FF1311F10033F7200AB703020034
:102B70009B83F3FF9393F3006310774893019000D6
:102B800093000000378100001B01F1FF33F7200A9A
:102B9000B78300009B83F3FF631077469301A00087
:102BA000B70000809B80F0FF1301000033F7200A7C
:102BB000B70300809B83F3FF631077449301B00059
:102BC000B70000809B80F0FF378100001B01F1FF00
:102BD00033F7200AB70300809B83F3FF631E77401F
:102BE0009301C0009B0010009390F001378100001A
:102BF0001B01F1FF33F7200A9B0310009393F301AD
:102C0000631C773E9301D000B70000809B80F0FFEB
:102C1000370102001B01F1FF1311F10033F7200A05
:102C2000B70302009B83F3FF9393F3006316773C93
:102C30009301E000930000001B011000131101023A
:102C40001301F1FF33F7200A9B0310009393030253
:102C50009383F3FF6312773A9301F0009B00100017
:102C6000939000029380F0FF1301100033F7200AC5
:102C70009B031000939303029383F3FF631E773645
:102C8000930100019B001000939000029380F0FFDD
:102C90001B011000131101021301F1FF33F7200A89
:102CA0009B031000939303029383F3FF631677341F
:102CB000930110019300E0001301D000B3F0200A4B
:102CC0009303E000639A7032930120019300B000F7
:102CD0001301D00033F1200A9303D000631E71303A
:102CE000930130019300D000B3F0100A9303D00099
:102CF0006394703093014001130200009300B00010
:102D00001301D00033F7200A130307001302120047
:102D100093022000E31452FE9303D000631E732C31
:102D200093015001130200009300E0001301D00052
:102D300033F7200A130000001303070013021200E8
:102D400093022000E31252FE9303E0006316732AFD
:102D500093016001130200009300C0001301D00032
:102D600033F7200A130000001300000013030700CC
:102D70001302120093022000E31052FE9303D000CE
:102D8000631C732693017001130200009300E0009E
:102D90001301D00033F7200A13021200930220001F
:102DA000E31652FE9303E000631877249301800139
:102DB000130200009300B0001301D00013000000C4
:102DC00033F7200A1302120093022000E31452FE8C
:102DD0009303D00063127722930190011302000045
:102DE0009300F0001301D000130000001300000056
:102DF00033F7200A1302120093022000E31252FE5E
:102E00009303F000631A771E9301A00113020000E0
:102E10009300A000130000001301D00033F7200A34
:102E20001302120093022000E31452FE9303D00019
:102E30006314771C9301B00113020000930000019A
:102E4000130000001301D0001300000033F7200A24
:102E50001302120093022000E31252FE93030001BA
:102E6000631C77189301C0011302000093009000C7
:102E700013000000130000001301D00033F7200AF4
:102E80001302120093022000E31252FE9303D000BB
:102E9000631477169301D001130200001301D000D0
:102EA0009300100133F7200A13021200930220004E
:102EB000E31652FE93031001631077149301E001AF
:102EC000130200001301D0009300800013000000E3
:102ED00033F7200A1302120093022000E31452FE7B
:102EE0009303D000631A77109301F00113020000DE
:102EF0001301D00093002001130000001300000014
:102F000033F7200A1302120093022000E31252FE4C
:102F1000930320016312770E930100021302000055
:102F20001301D000130000009300700033F7200A53
:102F30001302120093022000E31452FE9303D00008
:102F4000631C770A93011002130200001301D000E2
:102F500013000000930030011300000033F7200A33
:102F60001302120093022000E31252FE9303300179
:102F70006314770893012002130200001301D000AC
:102F800013000000130000009300600033F7200AD4
:102F90001302120093022000E31252FE9303D000AA
:102FA000631C7704930130029300F0FF3371100A21
:102FB0009303F0FF63127104930140029300F0FF4A
:102FC00033F1000A9303F0FF63187102930150027A
:102FD000B370000A930300006390700293016002D3
:102FE000930000011301E00133F0200A9303000075
:102FF00063147000631A300013951100630005001C
:103000001365150073000000130510007300000025
:04301000731000C079
:10301800417373657274696F6E206661696C65646B
:103028003A2061646472203E3D202831554C203C92
:103038003C203132292026262061646472203C20FD
:103048003633202A202831554C203C3C2031322967
:103058000A00000000000000417373657274696F14
:103068006E206661696C65643A20212870745B3350
:103078005D5B616464722F2831554C203C3C2031E3
:1030880032295D2026203078303830292026262025
:103098006361757365203D3D203078660A00000045
:1030A800417373657274696F6E206661696C6564DB
:1030B8003A206E6F64650A00417373657274696FB4
:1030C8006E206661696C65643A20757365725F6D20
:1030D800617070696E675B616464722F2831554C4A
:1030E800203C3C203132295D2E61646472203D3DD4
:1030F80020300A0000000000417373657274696F24
:103108006E206661696C65643A202122696C6C6581
:1031180067616C20696E737472756374696F6E226F
:103128000A00000000000000417373657274696F43
:103138006E206661696C65643A2070745B335D5B10
:10314800616464722F2831554C203C3C203132296F
:103158005D20262030783034300A0000000000005E
:10316800417373657274696F6E206661696C65641A
:103178003A2070745B335D5B616464722F2831554B
:103188004C203C3C203132295D20262030783038D4
:10319800300A000000000000417373657274696FA3
:1031A8006E206661696C65643A2074662D3E6570B0
:1031B8006320252034203D3D20300A000000000017
:1031C800417373657274696F6E206661696C6564BA
:1031D8003A202122756E6578706563746564206590
:1031E8007863657074696F6E220A00000000000041
:1031F800417373657274696F6E206661696C65648A
:103208003A202122756E737570706F727465642030
:0C32180073617470206D6F6465220A0001
:040000058000000077
:00000001FF
