:0200000480007A
:100000006F00C0006F20802C6F20402C93000000F8
:10001000130100009301000013020000930200008E
:100020001303000093030000130400009304000076
:10003000130500009305000013060000930600005E
:100040001307000093070000130800009308000046
:100050001309000093090000130A0000930A00002E
:10006000130B0000930B0000130C0000930C000016
:10007000130D0000930D0000130E0000930E0000FE
:10008000130F0000930F00009702000093820201FB
:10009000739052307350447497020000938202F7B9
:1000A0007390523017E100001301C1E3F32240F1D5
:1000B0009392C2003301510073100134EF20501DA0
:1000C000173500001305459E6F20007C8332851094
:1000D000739012148330850003310501833185014B
:1000E000033205028332850203330503833385031C
:1000F00003340504833485048335850503360506FA
:1001000083368506033705078337850703380508D7
:10011000833885080339050983398509033A050AB7
:10012000833A850A033B050B833B850B033C050C97
:10013000833C850C033D050D833D850D033E050E77
:10014000833E850E033F050F833F850F033505056D
:10015000730020107311011423341100233C31006B
:10016000233041022334510223386102233C7102BF
:1001700023308104233491042338A104233CB104A7
:100180002330C1062334D1062338E106233CF1068F
:10019000233001092334110923382109233C310973
:1001A0002330410B2334510B2338610B233C710B5B
:1001B0002330810D2334910D2338A10D233CB10D43
:1001C0002330C10F2334D10F2338E10F233CF10F2B
:1001D000F312011423385100F32200102330511080
:1001E000F322101423345110F32230142338511009
:1001F000F3222014233C5110130501006F20003B13
:1010000000000000000000000000000000000000E0
:1010100000000000000000000000000000000000D0
:1010200000000000000000000000000000000000C0
:1010300000000000000000000000000000000000B0
:081040000000000000000000A8
:10200000B3E7C500B367F50093F77700B306C500E3
:10201000638407023386C50093070500637ED502FB
:1020200003C705009385150093871700A38FE7FE6C
:10203000E318B6FE67800000E37ED5FE9307050037
:1020400003B70500938787009385850023BCE7FECF
:10205000E3E8D7FE6780000067800000130101FFFE
:10206000B367C500233081002334110093F7770054
:10207000130405003307C500638207026376E50099
:1020800093F5F50FEFF09FFD8330810013050400F9
:10209000033401001301010167800000B70701014B
:1020A000938717109397070193871710939707014A
:1020B00093F5F50F93871710B385F502E376E5FCEA
:1020C000930705009387870023BCB7FEE3ECE7FE88
:1020D0008330810013050400033401001301010162
:1020E0006780000083470500638E070093070500A3
:1020F00003C7170093871700E31C07FE3385A7402B
:10210000678000001305000067800000834705001A
:10211000938515001305150003C7F5FF638A0700B3
:10212000E386E7FE1B8507003B05E540678000006E
:10213000130500006FF05FFFB367B50093F77700FA
:10214000639E0702137886FF330805016378050351
:10215000930705006F000001938787009385850032
:1021600063F8070183B6070003B70500E386E6FEC0
:102170003385A7403306A640138507003386C50084
:102180006F00400103C705008347F5FF93851500E5
:10219000639AE70013051500E396C5FE13050000DA
:1021A000678000003B85E7406780000093070500DB
:1021B00003C705009387170093851500A38FE7FEDB
:1021C000E31807FE6780000003470500930600023E
:1021D000930705006318D70003C7170093871700FC
:1021E000E30CD7FE9306D002630ED7049306B00229
:1021F0006300D70483C6070093050000638C0604C0
:102200001305000093871700131725001B8606FD92
:1022100083C607003307A700131717003305E6002E
:10222000E39206FE638A05023305A0406780000042
:1022300083C6170093871700638E0600930500007E
:102240006FF01FFC83C617009305100093871700DB
:10225000E39806FA13050000678000008347050035
:10226000638007049305101017F7FFFF130787D942
:10227000939505030336070013051500B3E6B70071
:10228000630A060097F7FFFF23BE07DA83370700CC
:10229000E39A07FE2330D70083470500E39C07FC41
:1022A0006780000017F7FFFF1307C7D583370700C4
:1022B000638A070097F7FFFF23B607D88337070025
:1022C000E39A07FE2330A7006F000000130101FF0F
:1022D0001305903423341100EFF0DFFC130101FEED
:1022E0001306810013077101130890006F0080002E
:1022F000138707009376F500938506009307700512
:102300006364D80093070003BB87B7002300F7007E
:10231000135545009307F7FFE31CE6FC8347810054
:10232000230C0100638207041305101093060600B6
:1023300017F7FFFF130707CD1315050383350700B4
:102340009386160033E6A700638A050097F7FFFF20
:1023500023BA07CE83370700E39A07FE83C7060038
:102360002330C700E39C07FC1301010267800000D3
:10237000130101FB9307100037F7FFFF2322F10041
:102380002334110423340100B306E500B7E703004A
:1023900023308104233C9102233821032334310369
:1023A00063F6F61A9359C500938409601749000033
:1023B000130949C593973400B307F90083B70700A1
:1023C0003374E500639A071017870000130707C4EA
:1023D00023304103033A0700233C510163040A1AE6
:1023E00083378A009786000083B6C6C12330F70082
:1023F0006388D71413064100930581001305040078
:10240000833A0A00EF008069631C051093D6CA0066
:102410009396A60093E6F60193973400B307F9006C
:1024200013E7060C23B0E70073000412973700008F
:10243000938747BD93994900B387370103B70700D6
:10244000631C071403370A00B705040023B0E70034
:1024500003378A0023B4E700F3A50510B707E0FFB0
:10246000B307F40037160000130704003386C700D3
:1024700003B3070083B8870003B8070103B58701DA
:10248000233067002334170123380701233CA700BA
:102490009387070213070702E39CC7FC739005109C
:1024A00093973400B304F90023B0D40073000412EE
:1024B0000F1000000334010483308104033A010249
:1024C000833A810183348103033901038339810213
:1024D000130101056780000013F70704630E07046A
:1024E00013F70708631207081307F00093E70708BC
:1024F000639CE50693943400B304990023B0F40080
:102500007300041203340104833081048334810393
:10251000033901038339810213010105678000003B
:1025200083360A008337810093D6C6009396A600AF
:10253000B3E6F6006FF05FEE93E707046FF09FFBE2
:102540009787000023B007AC6FF0DFEA1715000093
:102550001305C5C323304103233C5101EFF01FD0C5
:1025600013053000EFF01FD417150000130585C6C2
:1025700023304103233C5101EFF05FCE13053000BF
:10258000EFF05FD217150000130545C9EFF01FCD1E
:1025900013053000EFF01FD117150000130585C992
:1025A000EFF0DFCB13053000EFF0DFCF130101F8C0
:1025B00023388106233C110613040500EF00804DEB
:1025C0006312050E83358411930780006386F5122C
:1025D00093072000638AF502938745FF13071000D5
:1025E0006376F7009307F0006398F5240335041130
:1025F000EFF01FD81305040003340107833081076F
:10260000130101086FD09FAC033784109377370014
:102610006394070A03270700EF0780007310300058
:1026200083A707002334910623302107233C31057B
:10263000233841052334510523306105233C7103C0
:1026400023388103233491032330A103233CB101B8
:102650006300F70613051010930710049716000087
:10266000938646C117F7FFFF1307C7991315050394
:10267000833507009386160033E6A700638A0500BA
:1026800097F7FFFF23B0079C83370700E39A07FE05
:1026900083C706002330C700E39C07FC1305300006
:1026A000EFF05FC013050400EFD05FA26FF09FF161
:1026B00013051000EFF01FBF17150000130585C5A7
:1026C0002334910623302107233C3105233841056B
:1026D0002334510523306105233C710323388103E2
:1026E000233491032330A103233CB101EFF01FB742
:1026F00013053000EFF01FBB832704052334910638
:10270000233841052334510523306105233C7103EF
:1027100023388103233491032330A103233021077D
:10272000233C3105233CB1012334F100B7140000F0
:10273000973A0000938A0A8D174D0000130D8D8C77
:10274000B70C0400370CE0FF178A0000130A8A8BCD
:10275000978B0000938B8B8B37FB030093D7C400C0
:102760001399470033872A0103370700630C0708D2
:102770009387076093973700B307FD0083B907007D
:1027800093F709046380070AF3AD0C1033848401C6
:10279000371600009305040013850400EFF0DF995D
:1027A0006304050493F909086386090CB716000051
:1027B0001387040093070400B386D400033807008E
:1027C00003358700833507010336870123B00701EE
:1027D00023B4A70023B8B70023BCC7001307070220
:1027E00093870702E31CD7FCB3872A0173900D106F
:1027F00003370A0023B00700630007022334F70001
:102800002330FA00B7170000B384F400E39864F5AE
:1028100003358100EFF01FA92330FA0023B0FB003D
:102820006FF05FFE171500001305C5A7EFF01FA39B
:1028300013053000EFF01FA717150000130505B0B2
:102840002334910623302107233C310523384105E9
:102850002334510523306105233C71032338810360
:10286000233491032330A103233CB101EFF01F9FD8
:102870006FF0DFE217150000130545A6EFF01F9E6D
:1028800013053000EFF01FA2F32740F1639E0718F5
:10289000130101ED23308112976800009388887638
:1028A00013040500975700009387C775174500006C
:1028B000130545759356C50013D7C80093D7C700B5
:1028C00017330000130303741306F0FF9396A6005A
:1028D0009397A7001317A70037080020233411127D
:1028E00093E6160093E717001308F80C1367170018
:1028F0009355C300131EF603233CF5FE2330D3008B
:1029000023BC08FF2330E500B3E7C5017390071827
:10291000732700186394E7161356B6009307F00167
:102920009702000093824201F39252307310063BEB
:102930007390073A739052309306F0BF9396560106
:1029400097E7FFFF93874781B387D70073905710AE
:10295000F3270034B387D70073900714B7B700008C
:102960009B87071073902730B7E701009B870760AC
:10297000739007307350403017370000130787A754
:102980009387063E1308F0BFB306D700B307F700DE
:10299000B708080013185801177600002338D666C8
:1029A00017330000130303E49776000023BCF6649A
:1029B0009388F8039307A0001308080113D61700A3
:1029C000B3861701B347F600B30507019396C60017
:1029D000939757002330D7002334B70093F70702AB
:1029E00013070701B367F600E31AE3FC13060012AE
:1029F00093050000130501009737000023B007DEA0
:102A0000EFF0CFE5B70700803304F40013050100B1
:102A100023348110EFD08FEB833081120334011205
:102A20001301011367800000B7476B03B705080067
:102A30001306100093061000938757C89385C5FFAF
:102A40001316F6019396E6036F00C0012F200700CE
:102A500013D71700B3C7E7009397E703B3F7D7007F
:102A6000B3E7E70033F7B70013F517003307C700E4
:102A7000E31E05FC032007006FF09FFD1715000003
:102A80001305C58EEFF08FFD13053000EFF09F8129
:102A90006780000013050000678000001305000038
:102AA00067800000930120009710000093808055FC
:102AB000370155001B015105131101011301510587
:102AC000131111011301A10A970700009387470111
:102AD00023B0200003B700006F008000130701003F
:102AE000B70355009B8353059393030193835305C9
:102AF000939313019383A30A6318776693013000BD
:102B000097100000938000503701D5FF1B0151053D
:102B100013110101130151051311D1001301B1006B
:102B20001311C100130101A097070000938747010B
:102B300023B4200003B780006F008000130701005A
:102B4000B703D5FF9B8353059393030193835305E9
:102B50009393D3009383B3009393C300938303A011
:102B600063147760930140009710000093808049C0
:102B7000370155001B0151051311D1001301B1009C
:102B80001311C100130111A01311C100130101AAF7
:102B9000970700009387470123B8200003B700017F
:102BA0006F00800013070100B70355009B83530596
:102BB0009393D3009383B3009393C300938313A0A1
:102BC0009393C300938303AA6310775A9301500031
:102BD00097100000938000433701FDFF1B01510552
:102BE00013110101130151051311010113015105C5
:102BF0001311D1001301A10097070000938747012B
:102C000023BC200003B780016F0080001307010080
:102C1000B703FDFF9B8353059393030193835305F0
:102C200093930301938353059393D3009383A3005A
:102C3000631C77529301600097100000938000405E
:102C4000370155001B0151051311010113015105F5
:102C5000131111011301A10A97070000938747017F
:102C600023B420FE03B780FE6F008000130701002D
:102C7000B70355009B835305939303019383530537
:102C8000939313019383A30A6310774E930170000B
:102C9000971000009380803A3701D5FF1B01510542
:102CA00013110101130151051311D1001301B100DA
:102CB0001311C100130101A097070000938747017A
:102CC00023B820FE03B700FF6F0080001307010048
:102CD000B703D5FF9B835305939303019383530558
:102CE0009393D3009383B3009393C300938303A080
:102CF000631C774693018000971000009380003496
:102D0000370155001B0151051311D1001301B1000A
:102D10001311C100130111A01311C100130101AA65
:102D2000970700009387470123BC20FE03B780FF6D
:102D30006F00800013070100B70355009B83530504
:102D40009393D3009383B3009393C300938313A00F
:102D50009393C300938303AA631877409301900071
:102D6000971000009380802D3701FDFF1B01510556
:102D70001311010113015105131101011301510533
:102D80001311D1001301A100970700009387470199
:102D900023B0200003B700006F008000130701007C
:102DA000B703FDFF9B83530593930301938353055F
:102DB00093930301938353059393D3009383A300C9
:102DC0006314773A9301A000971000009380802746
:102DD000377124001B01D18A1311E100130191C046
:102DE0001311D100130151341311C1001301816774
:102DF000138200FE2330220283B20000B773240046
:102E00009B83D38A9393E300938393C09393D300DC
:102E1000938353349393C30093838367639672348D
:102E20009301B000971000009380C0213741B0009B
:102E30001B0111261311C1001301B1301311F10050
:102E4000130131211311C100130181099380D0FFB7
:102E5000A3B52000171200001302421F83320200A4
:102E6000B743B0009B8313269393C3009383B3307F
:102E70009393F300938333219393C3009383830944
:102E80006394722E9301C00013020000B7D0BB0AF6
:102E90009B80D0CD171100001301C1162330110003
:102EA00003370100B7D3BB0A9B83D3CD631E772AB8
:102EB0001302120093022000E31A52FC9301D00087
:102EC00013020000B7C0AB0A9B80D0CC17110000E2
:102ED0001301411313000000233411000337810054
:102EE000B7C3AB0A9B83D3CC6310772813021200BD
:102EF00093022000E31852FC9301E000130200004B
:102F0000B7C0AA0D9B80C0BC171100001301810F30
:102F100013000000130000002338110003370101E3
:102F2000B7C3AA0D9B83C3BC63107724130212009E
:102F300093022000E31652FC9301F00013020000FC
:102F4000B7B0DA0D9B80C0BB130000001711000062
:102F50001301410B233C110003378101B7B3DA0D94
:102F60009B83C3BB631277201302120093022000DD
:102F7000E31852FC9301000113020000B7B0DD0C0E
:102F80009B80B0AB130000001711000013018107F4
:102F9000130000002330110203370102B7B3DD0C28
:102FA0009B83B3AB6312771C1302120093022000C1
:102FB000E31652FC9301100113020000B7E0CD0CA0
:102FC0009B80B0AA1300000013000000171100003E
:102FD000130141032334110203378102B7E3CD0CFF
:102FE0009B83B3AA63127718130212009302200086
:102FF000E31652FC93012001130200001711000098
:1030000013014100B72011009B80302323301100B1
:1030100003370100B72311009B8333236316771412
:103020001302120093022000E31A52FC93013001B4
:1030300013020000171100001301C1FCB71001308A
:103040009B803022130000002334110003378100DD
:10305000B71301309B8333226318771013021200D9
:1030600093022000E31852FC930140011302000078
:1030700017110000130101F9B71000339B802012D3
:103080001300000013000000233811000337010172
:10309000B71300339B8323126318770C13021200BB
:1030A00093022000E31652FC93015001130200002A
:1030B00017110000130101F513000000B7003023C1
:1030C0009B802011233C110003378101B70330237B
:1030D0009B832311631A77081302120093022000C6
:1030E000E31852FC93016001130200001711000065
:1030F000130141F113000000B70033229B8010013F
:10310000130000002330110203370102B7033322FA
:103110009B831301631A77041302120093022000A9
:10312000E31652FC93017001130200001711000016
:10313000130141ED1300000013000000B73023120B
:103140009B8010002334110203378102B73323120E
:103150009B831300631A770013021200930220006E
:10316000E31652FC631A300013951100630005004A
:1031700013651500730000001305100073000000B4
:04318000731000C008
:10318800417373657274696F6E206661696C6564FA
:103198003A2061646472203E3D202831554C203C21
:1031A8003C203132292026262061646472203C208C
:1031B8003633202A202831554C203C3C20313229F6
:1031C8000A00000000000000417373657274696FA3
:1031D8006E206661696C65643A20212870745B33DF
:1031E8005D5B616464722F2831554C203C3C203172
:1031F80032295D20262030783038302920262620B4
:103208006361757365203D3D203078660A000000D3
:10321800417373657274696F6E206661696C656469
:103228003A206E6F64650A00417373657274696F42
:103238006E206661696C65643A20757365725F6DAE
:10324800617070696E675B616464722F2831554CD8
:10325800203C3C203132295D2E61646472203D3D62
:1032680020300A0000000000417373657274696FB2
:103278006E206661696C65643A202122696C6C6510
:1032880067616C20696E737472756374696F6E22FE
:103298000A00000000000000417373657274696FD2
:1032A8006E206661696C65643A2070745B335D5B9F
:1032B800616464722F2831554C203C3C20313229FE
:1032C8005D20262030783034300A000000000000ED
:1032D800417373657274696F6E206661696C6564A9
:1032E8003A2070745B335D5B616464722F283155DA
:1032F8004C203C3C203132295D2026203078303863
:10330800300A000000000000417373657274696F31
:103318006E206661696C65643A2074662D3E65703E
:103328006320252034203D3D20300A0000000000A5
:10333800417373657274696F6E206661696C656448
:103348003A202122756E657870656374656420651E
:103358007863657074696F6E220A000000000000CF
:10336800417373657274696F6E206661696C656418
:103378003A202122756E737570706F7274656420BF
:0C33880073617470206D6F6465220A0090
:10400000EFBEADDEEFBEADDEEFBEADDEEFBEADDED0
:10401000EFBEADDEEFBEADDEEFBEADDEEFBEADDEC0
:10402000EFBEADDEEFBEADDEEFBEADDEEFBEADDEB0
:10403000EFBEADDEEFBEADDEEFBEADDEEFBEADDEA0
:10404000EFBEADDEEFBEADDEEFBEADDEEFBEADDE90
:040000058000000077
:00000001FF
