:0200000480007A
:100000006F000005732F2034930F80006308FF03F7
:10001000930F90006304FF03930FB0006300FF038E
:10002000130F000063040F0067000F00732F2034CC
:1000300063540F006F00400093E19153171F0000BD
:1000400023223FFC171F000023200FFC6FF01FFF2F
:100050009300000013010000930100001302000050
:100060009302000013030000930300001304000038
:100070009304000013050000930500001306000020
:100080009306000013070000930700001308000008
:10009000930800001309000093090000130A0000F0
:1000A000930A0000130B0000930B0000130C0000D8
:1000B000930C0000130D0000930D0000130E0000C0
:1000C000930E0000130F0000930F0000732540F102
:1000D0006310050097020000938202017390523072
:1000E000735044749702000093820201739052305F
:1000F00073500018970200009382420273905230AE
:100100009B021000939252039382F2FF7390023B82
:100110009302F0017390023A73504030970200004E
:1001200093824201739052307350203073503030BC
:100130009301000097020000938202ED7390523009
:10014000130510001315F501635C05000F00F00F97
:10015000930110009308D005130500007300000000
:1001600093020000638A020073905210B7B200003D
:100170009B829210739022307350003097020000DF
:100180009382420173901234732540F17300203042
:100190009301200093001000130100003BD7206062
:1001A00093031000631477569301300093001000FE
:1001B000130110003BD72060B70300806318775409
:1001C0009301400093001000130170003BD72060A2
:1001D000B7030002631C7752930150009300100094
:1001E0001301E0003BD72060B7030400631077528F
:1001F00093016000930010001301F0013BD72060D1
:100200009303200063147750930170009300F0FF74
:10021000130100003BD720609303F0FF6318774E73
:10022000930180009300F0FF130110003BD7206082
:100230009303F0FF631C774C930190009300F0FF51
:10024000130170003BD720609303F0FF6310774CDD
:100250009301A0009300F0FF1301E0003BD7206062
:100260009303F0FF6314774A9301B0009300F0FF0B
:100270001301F0013BD720609303F0FF6318774828
:100280009301C000B72021219B80101213010000B0
:100290003BD72060B72321219B8313126318774635
:1002A0009301D000B72021219B8010121301100070
:1002B0003BD72060B79390909B83030963187744E2
:1002C0009301E000B72021219B80101213017000E0
:1002D0003BD72060B74342429B8323246318774275
:1002E0009301F000B72021219B8010121301E00040
:1002F0003BD72060B78384849B834348631877404F
:1003000093010001B72021219B8010121301F001FD
:100310003BD72060B74342429B8323246318773E38
:1003200093011001B72021219B801012130100FCC2
:100330003BD72060B72321219B8313126318773C9E
:1003400093012001B72021219B801012130110FC82
:100350003BD72060B79390909B8303096318773A4B
:1003600093013001B72021219B801012130170FCF2
:100370003BD72060B74342429B83232463187738DE
:1003800093014001B72021219B8010121301E0FC52
:100390003BD72060B78384849B83434863187736B8
:1003A00093015001B72021219B8010121301F0FF0F
:1003B0003BD72060B74342429B83232463187734A2
:1003C000930160019300100013017000BBD0206006
:1003D000B7030002639C7032930170019300100018
:1003E0001301E0003BD12060B703040063107132B9
:1003F0009301800193003000BBD01060B703006010
:100400006396703093019001130200009300100076
:10041000130170003BD72060130307001302120082
:1004200093022000E31452FEB70300026310732E00
:100430009301A00113020000930010001301E000DB
:100440003BD72060130000001303070013021200C3
:1004500093022000E31252FEB70304006318732ACC
:100460009301B00113020000930010001301F0018A
:100470003BD72060130000001300000013030700A7
:100480001302120093022000E31052FE9303200097
:10049000631E73269301C001130200009300100035
:1004A000130170003BD7206013021200930220005A
:1004B000E31652FEB7030002631A77249301D001BA
:1004C00013020000930010001301E000130000006D
:1004D0003BD720601302120093022000E31452FE67
:1004E000B7030400631477229301E00113020000B4
:1004F000930010001301F00113000000130000002E
:100500003BD720601302120093022000E31252FE38
:1005100093032000631C771E9301F0011302000077
:100520009300100013000000130170003BD72060FF
:100530001302120093022000E31452FEB7030002DC
:100540006316771C93010002130200009300100051
:10055000130000001301E000130000003BD72060EF
:100560001302120093022000E31252FEB7030400AC
:10057000631E77189301100213020000930010000D
:1005800013000000130000001301F0013BD72060AE
:100590001302120093022000E31252FE9303200084
:1005A00063167716930120021302000013017000F6
:1005B000930010003BD7206013021200930220002A
:1005C000E31652FEB7030002631277149301300260
:1005D000130200001301E00093001000130000005C
:1005E0003BD720601302120093022000E31452FE56
:1005F000B7030400631C771093014002130200004C
:100600001301F0019300100013000000130000001C
:100610003BD720601302120093022000E31252FE27
:10062000930320006314770E93015002130200001D
:100630001301700013000000930010003BD72060EE
:100640001302120093022000E31452FEB7030002CB
:10065000631E770A93016002130200001301E00099
:100660001300000093001000130000003BD720602F
:100670001302120093022000E31252FEB70304009B
:100680006316770893017002130200001301F00152
:100690001300000013000000930010003BD72060FF
:1006A0001302120093022000E31252FE9303200073
:1006B000631E7704930180029300F0003B511060A9
:1006C00093030000631471049301900293000002ED
:1006D0003BD1006093030002631A71029301A002F0
:1006E000BB50006093030000639270029301B0025C
:1006F00093000040371100001B0101803BD02060B7
:100700009303000063147000631030020F00F00FB9
:10071000638001009391110093E111009308D005CB
:1007200013850100730000000F00F00F930110000B
:100730009308D0051305000073000000731000C07B
:1007400000000000000000000000000000000000A9
:100750000000000000000000000000000000000099
:100760000000000000000000000000000000000089
:0C0770000000000000000000000000007D
:1010000000000000000000000000000000000000E0
:1010100000000000000000000000000000000000D0
:1010200000000000000000000000000000000000C0
:1010300000000000000000000000000000000000B0
:081040000000000000000000A8
:040000058000000077
:00000001FF
