:0200000480007A
:100000006F00C004732F2034930F8000630AFF0336
:10001000930F90006306FF03930FB0006302FF038A
:10002000170F0080130F0FFE63040F0067000F000F
:10003000732F203463540F006F00400093E19153FD
:10004000171F000023203FFC6FF09FFF732540F136
:1000500063100500970200009382020173905230F2
:1000600073500018970200009382C20173905230BF
:100070009302F0FF7390023B9302F0017390023AF7
:1000800097020000938282017390523073502030A7
:1000900073503030735040309301000097020000DD
:1000A000938282F673905230130510001315F501F8
:1000B000635805000F00F00F93011000730000005B
:1000C00097020080938202F4638E020073905210B4
:1000D000B7B200009B8292107390223073232030BD
:1000E000E39E62F473500030970200009382420155
:1000F00073901234732540F173002030B7000080F4
:100100001301000033D72040B70300809301200083
:1001100063147758B70000801301100033D72040D4
:10012000B70300C09301300063187756B700008012
:100130001301700033D72040B70300FF9301400044
:10014000631C7754B70000801301E00033D72040D0
:10015000B703FEFF9301500063107754B70000808F
:100160009B8010001301F00133D720409303F0FF70
:100170009301600063127752B70000809B80F0FF0C
:100180001301000033D72040B70300809B83F3FFA7
:100190009301700063127750B70000809B80F0FFDE
:1001A0001301100033D72040B70300409B83F3FFB7
:1001B000930180006312774EB70000809B80F0FFB0
:1001C0001301700033D72040B70300019B83F3FF76
:1001D000930190006312774CB70000809B80F0FF82
:1001E0001301E00033D72040B70302009B83F3FFE5
:1001F0009301A0006312774AB70000809B80F0FF54
:100200001301F00133D72040930300009301B000A5
:1002100063147748B78081819B8010181301000018
:1002200033D72040B78381819B8313189301C0008B
:1002300063147746B78081819B80101813011000EA
:1002400033D72040B7C3C0C09B83030C9301D000B9
:1002500063147744B78081819B801018130170006C
:1002600033D72040B70303FF9B8333309301E00073
:1002700063147742B78081819B8010181301E000DE
:1002800033D72040B703FEFF9B8363609301F000E8
:1002900063147740B78081819B8010181301F001AF
:1002A00033D720409303F0FF930100016316773E9C
:1002B000B78081819B801018130100FC33D7204048
:1002C000B78381819B831318930110016316773CD8
:1002D000B78081819B801018130110FC33D7204018
:1002E000B7C3C0C09B83030C930120016316773A08
:1002F000B78081819B801018130170FC33D7204098
:10030000B70303FF9B8333309301300163167738C3
:10031000B78081819B8010181301E0FC33D7204007
:10032000B703FEFF9B83636093014001631677363A
:10033000B78081819B8010181301F0FF33D72040D4
:100340009303F0FF9301500163187734B7000080E6
:1003500013017000B3D02040B70300FF9301600188
:10036000639C7032B70000801301E00033D120405D
:10037000B703FEFF930170016310713293007000A8
:10038000B3D0104093030000930180016396703056
:1003900013020000B70000801301700033D7204023
:1003A000130307001302120093022000E31452FE0D
:1003B000B70300FF930190016310732E1302000036
:1003C000B70000801301E00033D720401300000085
:1003D000130307001302120093022000E31252FEDF
:1003E000B703FEFF9301A0016318732A13020000F4
:1003F000B70000801301F00133D720401300000044
:1004000013000000130307001302120093022000E0
:10041000E31052FE9303F0FF9301B001631E7326B5
:1004200013020000B70000801301700033D7204092
:100430001302120093022000E31652FEB70300FFDE
:100440009301C001631A772413020000B7000080F3
:100450001301E0001300000033D720401302120004
:1004600093022000E31452FEB703FEFF9301D00174
:100470006314772213020000B70000801301F0011B
:10048000130000001300000033D7204013021200B5
:1004900093022000E31252FE9303F0FF9301E00168
:1004A000631C771E13020000B700008013000000D9
:1004B0001301700033D72040130212009302200072
:1004C000E31452FEB70300FF9301F0016316771C9B
:1004D00013020000B7000080130000001301E000C9
:1004E0001300000033D720401302120093022000B3
:1004F000E31252FEB703FEFF93010002631E77185A
:1005000013020000B7000080130000001300000079
:100510001301F00133D72040130212009302200090
:10052000E31252FE9303F0FF930110026316771655
:100530001302000013017000B700008033D7204081
:100540001302120093022000E31652FEB70300FFCD
:100550009301200263127714130200001301E000DC
:10056000B70000801300000033D7204013021200B0
:1005700093022000E31452FEB703FEFF9301300202
:10058000631C7710130200001301F001B700008014
:10059000130000001300000033D7204013021200A4
:1005A00093022000E31252FE9303F0FF93014002F6
:1005B0006314770E13020000130170001300000093
:1005C000B700008033D720401302120093022000AE
:1005D000E31452FEB70300FF93015002631E770A33
:1005E000130200001301E00013000000B7000080B8
:1005F0001300000033D720401302120093022000A2
:10060000E31252FEB703FEFF930160026316770800
:10061000130200001301F00113000000130000009A
:10062000B700008033D7204013021200930220004D
:10063000E31252FE9303F0FF93017002631E7704EE
:100640009300F000335110409303000093018002A7
:10065000631471049300000233D10040930300023D
:1006600093019002631A7102B3500040930300009B
:100670009301A002639270029300004037110000C2
:100680001B01018033D02040930300009301B0028E
:1006900063147000631C30000F00F00F63800100D2
:1006A0009391110093E11100730000000F00F00F0F
:1006B0009301100073000000731000C000000000E0
:0406C0000000000036
:1010000000000000000000000000000000000000E0
:1010100000000000000000000000000000000000D0
:1010200000000000000000000000000000000000C0
:1010300000000000000000000000000000000000B0
:081040000000000000000000A8
:040000058000000077
:00000001FF
