:0200000480007A
:100000006F00C0006F20002C6F20C02B93000000F9
:10001000130100009301000013020000930200008E
:100020001303000093030000130400009304000076
:10003000130500009305000013060000930600005E
:100040001307000093070000130800009308000046
:100050001309000093090000130A0000930A00002E
:10006000130B0000930B0000130C0000930C000016
:10007000130D0000930D0000130E0000930E0000FE
:10008000130F0000930F00009702000093820201FB
:10009000739052307350447497020000938202F7B9
:1000A0007390523017D100001301C1E3F32240F1E5
:1000B0009392C2003301510073100134EF20501CA1
:1000C000173500001305459D6F20007B8332851096
:1000D000739012148330850003310501833185014B
:1000E000033205028332850203330503833385031C
:1000F00003340504833485048335850503360506FA
:1001000083368506033705078337850703380508D7
:10011000833885080339050983398509033A050AB7
:10012000833A850A033B050B833B850B033C050C97
:10013000833C850C033D050D833D850D033E050E77
:10014000833E850E033F050F833F850F033505056D
:10015000730020107311011423341100233C31006B
:10016000233041022334510223386102233C7102BF
:1001700023308104233491042338A104233CB104A7
:100180002330C1062334D1062338E106233CF1068F
:10019000233001092334110923382109233C310973
:1001A0002330410B2334510B2338610B233C710B5B
:1001B0002330810D2334910D2338A10D233CB10D43
:1001C0002330C10F2334D10F2338E10F233CF10F2B
:1001D000F312011423385100F32200102330511080
:1001E000F322101423345110F32230142338511009
:1001F000F3222014233C5110130501006F20403AD4
:1010000000000000000000000000000000000000E0
:1010100000000000000000000000000000000000D0
:1010200000000000000000000000000000000000C0
:1010300000000000000000000000000000000000B0
:081040000000000000000000A8
:10200000B3E7C500B367F50093F77700B306C500E3
:10201000638407023386C50093070500637ED502FB
:1020200003C705009385150093871700A38FE7FE6C
:10203000E318B6FE67800000E37ED5FE9307050037
:1020400003B70500938787009385850023BCE7FECF
:10205000E3E8D7FE6780000067800000130101FFFE
:10206000B367C500233081002334110093F7770054
:10207000130405003307C500638207026376E50099
:1020800093F5F50FEFF09FFD8330810013050400F9
:10209000033401001301010167800000B70701014B
:1020A000938717109397070193871710939707014A
:1020B00093F5F50F93871710B385F502E376E5FCEA
:1020C000930705009387870023BCB7FEE3ECE7FE88
:1020D0008330810013050400033401001301010162
:1020E0006780000083470500638E070093070500A3
:1020F00003C7170093871700E31C07FE3385A7402B
:10210000678000001305000067800000834705001A
:10211000938515001305150003C7F5FF638A0700B3
:10212000E386E7FE1B8507003B05E540678000006E
:10213000130500006FF05FFFB367B50093F77700FA
:10214000639E0702137886FF330805016378050351
:10215000930705006F000001938787009385850032
:1021600063F8070183B6070003B70500E386E6FEC0
:102170003385A7403306A640138507003386C50084
:102180006F00400103C705008347F5FF93851500E5
:10219000639AE70013051500E396C5FE13050000DA
:1021A000678000003B85E7406780000093070500DB
:1021B00003C705009387170093851500A38FE7FEDB
:1021C000E31807FE6780000003470500930600023E
:1021D000930705006318D70003C7170093871700FC
:1021E000E30CD7FE9306D002630AD7049306B0022D
:1021F000630CD70203C70700130600006308070437
:1022000013050000938717009B0607FD03C707000F
:102210003345A5203325D520E31607FE630A0602C1
:102220003305A0406780000003C71700938717009D
:10223000630E0700130600006FF09FFC03C7170032
:102240001306100093871700E31C07FA130500001C
:102250006780000083470500638007049305101022
:1022600017F7FFFF130707DA9395050303360700F7
:1022700013051500B3E6B700630A060097F7FFFFE2
:1022800023B207DC83370700E39A07FE2330D70029
:1022900083470500E39C07FC6780000017F7FFFFFA
:1022A000130747D683370700638A070097F7FFFFB6
:1022B00023BA07D883370700E39A07FE2330A70025
:1022C0006F000000130101FF130590342334110047
:1022D000EFF0DFFC130101FE13068100130771010B
:1022E000130890006F008000138707009376F500B5
:1022F00093850600930770056364D8009307000375
:10230000BB87B7002300F700135545009307F7FF7D
:10231000E31CE6FC83478100230C01006382070471
:10232000130510109306060017F7FFFF130787CD5C
:1023300013150503833507009386160033E6A700BF
:10234000638A050097F7FFFF23BE07CE8337070098
:10235000E39A07FE83C706002330C700E39C07FC0F
:102360001301010267800000130101FB93071000B5
:1023700037F7FFFF2322F100233411042334010037
:10238000B306E500B7E703002330810463F4F61ACF
:1023900023304103135AC50023382103233431036A
:1023A00013090A60973900009389C9C5B3673921B9
:1023B00083B707003374E5006396071017770000B2
:1023C0001307C7C4233C5101833A0700233C910201
:1023D00063840A1A83B78A009776000083B686C2A0
:1023E0002330F7006382D714130641009305810060
:1023F0001305040083B40A00EF004069631605105A
:1024000093D6C4009396A60093E6F60193E7060CD4
:10241000336739212330F700730004129727000037
:10242000938747BE131A4A00B387470103B70700D3
:10243000631E071403B70A00B705040023B0E700C2
:1024400003B78A0023B4E700F3A50510B707E0FF40
:10245000B307F40037160000130704003386C700E3
:1024600003B3070083B8870003B8070103B58701EA
:10247000233067002334170123380701233CA700CA
:102480009387070213070702E39CC7FC73900510AC
:10249000336939212330D900730004120F10000072
:1024A000033401048330810483348103833A81013E
:1024B0000339010383398102033A01021301010543
:1024C0006780000013F70704630C070413F707087D
:1024D000631607081307F00093E707086390E50801
:1024E000B369392123B0F9007300041203340104E5
:1024F000833081040339010383398102033A0102E5
:10250000130101056780000083B60A00833781004C
:1025100093D6C6009396A600B3E6F6006FF01FEFC1
:1025200093E707046FF0DFFB9777000023BC07AC4D
:102530006FF09FEB17150000130545A8233C91028F
:10254000233821032334310323304103233C510139
:10255000EFF05FD013053000EFF05FD417150000E7
:10256000130545AA233C9102233C5101EFF09FCE75
:1025700013053000EFF09FD217150000130505ADCD
:10258000EFF05FCD13053000EFF05FD117150000BD
:10259000130545ADEFF01FCC13053000EFF01FD051
:1025A000130101F823388106233C110613040500AA
:1025B000EF00404D6312050E8335841193078000B0
:1025C0006386F51293072000638AF502938745FF1F
:1025D000130710006376F7009307F0006396F52465
:1025E00003350411EFF05FD813050400033401072D
:1025F00083308107130101086FD05FAD033784106A
:10260000937737006394070A03270700EF078000DA
:102610007310300083A7070023349106233021076D
:10262000233C31052338410523345105233061050E
:10263000233C710323388103233491032330A10306
:10264000233CB1016300F706130510109307100433
:1026500097160000938606A517F7FFFF1307879AC2
:1026600013150503833507009386160033E6A7008C
:10267000638A050097F7FFFF23B6079C833707009F
:10268000E39A07FE83C706002330C700E39C07FCDC
:1026900013053000EFF09FC013050400EFD01FA317
:1026A0006FF09FF113051000EFF05FBF17150000EA
:1026B000130545A92334910623302107233C310516
:1026C000233841052334510523306105233C710330
:1026D00023388103233491032330A103233CB10128
:1026E000EFF05FB713053000EFF05FBB8327040501
:1026F00023349106233841052334510523306105E5
:10270000233C710323388103233491032330A10335
:1027100023302107233C3105233CB1012334F10050
:10272000B7140000972A0000938ACA8D173D000055
:10273000130D4D8DB70C0400370CE0FF177A000025
:10274000130A4A8C977B0000938B4B8C37FB03005A
:1027500093D7C4001399470033872A010337070032
:10276000630A070893870760B3E7A72183B90700C7
:1027700093F709046380070AF3AD0C1033848401D6
:10278000371600009305040013850400EFF0DF9A6C
:102790006304050493F909086386090CB716000061
:1027A0001387040093070400B386D400033807009E
:1027B00003358700833507010336870123B00701FE
:1027C00023B4A70023B8B70023BCC7001307070230
:1027D00093870702E31CD7FCB3872A0173900D107F
:1027E00003370A0023B00700630007022334F70011
:1027F0002330FA00B7170000B384F400E39A64F5BD
:1028000003358100EFF09FA92330FA0023B0FB00CD
:102810006FF05FFE171500001305C58BEFF09FA347
:1028200013053000EFF09FA717150000130505945E
:102830002334910623302107233C310523384105F9
:102840002334510523306105233C71032338810370
:10285000233491032330A103233CB101EFF09F9F68
:102860006FF01FE3171500001305458AEFF09F9ED8
:1028700013053000EFF09FA2F32740F1639E071885
:10288000130101ED23308112975800009388887757
:1028900013040500974700009387C776173500009B
:1028A000130545769356C50013D7C80093D7C700C4
:1028B00017230000130303751306F0FF9396A60079
:1028C0009397A7001317A70037080020233411128D
:1028D00093E6160093E717001308F80C1367170028
:1028E0009355C300131EF603233CF5FE2330D3009B
:1028F00023BC08FF2330E500B3E7C5017390071838
:10290000732700186394E7161356B6009307F00177
:102910009702000093824201F39252307310063BFB
:102920007390073A739052309306F0BF9396560116
:1029300097E7FFFF93874782B387D70073905710BD
:10294000F3270034B387D70073900714B7B700009C
:102950009B87071073902730B7E701009B870760BC
:10296000739007307350403017270000130787A873
:102970009387063E1308F0BFB306D700B307F700EE
:10298000B708080013185801176600002330D668EE
:1029900017230000130303E59766000023B4F666CF
:1029A0009388F803930730031308080113D6170020
:1029B000B3861701B347F600B30507019396C60027
:1029C000939757002330D7002334B70093F70702BB
:1029D00013070701B367F600E31AE3FC13060012BE
:1029E00093050000130501009727000023B807DEB8
:1029F000EFF0CFE6B70700803304F40013050100C1
:102A000023348110EFD08FEC833081120334011214
:102A10001301011367800000B7C71104B705080050
:102A20001306100093061000938717739385C5FF54
:102A30001316F6019396E6036F00C0012F200700DE
:102A400013D71700B3C7E7009397E703B3F7D7008F
:102A5000B3E7E70033F7B70013F517003307C700F4
:102A6000E31E05FC032007006FF09FFD1705000023
:102A70001305C572EFF00FFE13053000EFF01F8253
:102A80006780000013050000678000001305000048
:102A900067800000930120009300000013010000F4
:102AA0003B872008930300006318774E93013000A2
:102AB00093001000130110003B87200893032000AF
:102AC000631C774C930140009300300013017000A9
:102AD0003B8720089303A0006310774C93015000BC
:102AE000930000003781FFFF3B872008B783FFFF7B
:102AF0006314774A93016000B7000080130100005F
:102B00003B8720089B0310009393F30163167748DB
:102B100093017000B70000803781FFFF3B872008DA
:102B2000B783FF7F631A774693018000930000000C
:102B3000378100001B01F1FF3B872008B7830000AD
:102B40009B83F3FF631A774493019000B7000080E2
:102B50009B80F0FF130100003B872008B703008033
:102B60009B83F3FF631A77429301A000B7000080B4
:102B70009B80F0FF378100001B01F1FF3B8720089D
:102B8000B70301009B8313009393F3009383E3FF48
:102B9000631477409301B000B700008037810000D4
:102BA0001B01F1FF3B872008B70301009B83130043
:102BB0009393F3009383F3FF6310773E9301C00078
:102BC000B70000809B80F0FF3781FFFF3B87200824
:102BD000B783FF7F9B83F3FF6310773C9301D000A3
:102BE000930000001301F0FF3B8720089303F0FFE0
:102BF0006314773A9301E0009300F0FF1301100093
:102C00003B8720089B0310009393030263167738D9
:102C10009301F0009300F0FF1301F0FF3B872008C1
:102C20009B031000939303029383E3FF63167736AD
:102C30009301000193001000370100801B01F1FF98
:102C40003B8720089B0310009393F30163167734AE
:102C5000930110019300D0001301B000BB80200845
:102C600093038001639A7032930120019300E00086
:102C70001301B0003B81200893039001631E713063
:102C8000930130019300D000BB8010089303A00192
:102C90006394703093014001130200009300D00050
:102CA0001301B0003B872008130307001302120032
:102CB00093022000E31452FE93038001631E732CE1
:102CC00093015001130200009300E0001301B000D3
:102CD0003B872008130000001303070013021200B3
:102CE00093022000E31252FE930390016316732AAD
:102CF00093016001130200009300F0001301B00083
:102D00003B87200813000000130000001303070096
:102D10001302120093022000E31052FE9303A0015D
:102D2000631C732693017001130200009300D0000E
:102D30001301B0003B872008130212009302200009
:102D4000E31652FE930380016318772493018001F8
:102D5000130200009300E0001301B0001300000014
:102D60003B8720081302120093022000E31452FE56
:102D700093039001631277229301900113020000E4
:102D80009300F0001301B0001300000013000000D6
:102D90003B8720081302120093022000E31252FE28
:102DA0009303A001631A771E9301A0011302000090
:102DB0009300D000130000001301B0003B872008EF
:102DC0001302120093022000E31452FE93038001C9
:102DD0006314771C9301B001130200009300E0001C
:102DE000130000001301B000130000003B8720080F
:102DF0001302120093022000E31252FE930390018B
:102E0000631C77189301C001130200009300F000C7
:102E100013000000130000001301B0003B872008DE
:102E20001302120093022000E31252FE9303A0014A
:102E3000631477169301D001130200001301B00050
:102E40009300D0003B872008130212009302200059
:102E5000E31652FE93038001631077149301E0019F
:102E6000130200001301B0009300E0001300000003
:102E70003B8720081302120093022000E31452FE45
:102E800093039001631A77109301F001130200007D
:102E90001301B0009300F0001300000013000000C5
:102EA0003B8720081302120093022000E31252FE17
:102EB0009303A0016312770E930100021302000036
:102EC0001301B000130000009300D0003B872008DE
:102ED0001302120093022000E31452FE93038001B8
:102EE000631C770A93011002130200001301B00063
:102EF000130000009300E000130000003B8720084F
:102F00001302120093022000E31252FE9303900179
:102F10006314770893012002130200001301B0002C
:102F200013000000130000009300F0003B8720080E
:102F30001302120093022000E31252FE9303A00139
:102F4000631C7704930130029300F0003B011008EA
:102F50009303F00063127104930140029300000296
:102F60003B81000893030002631871029301500231
:102F7000BB0000089303000063907002930160029D
:102F8000930000011301E0013B802008930300003F
:102F900063147000631A300013951100630005007C
:102FA0001365150073000000130510007300000086
:042FB000731000C0DA
:102FB800417373657274696F6E206661696C6564CC
:102FC8003A2061646472203E3D202831554C203CF3
:102FD8003C203132292026262061646472203C205E
:102FE8003633202A202831554C203C3C20313229C8
:102FF8000A00000000000000417373657274696F75
:103008006E206661696C65643A20212870745B33B0
:103018005D5B616464722F2831554C203C3C203143
:1030280032295D2026203078303830292026262085
:103038006361757365203D3D203078660A000000A5
:10304800417373657274696F6E206661696C65643B
:103058003A206E6F64650A00417373657274696F14
:103068006E206661696C65643A20757365725F6D80
:10307800617070696E675B616464722F2831554CAA
:10308800203C3C203132295D2E61646472203D3D34
:1030980020300A0000000000417373657274696F84
:1030A8006E206661696C65643A202122696C6C65E2
:1030B80067616C20696E737472756374696F6E22D0
:1030C8000A00000000000000417373657274696FA4
:1030D8006E206661696C65643A2070745B335D5B71
:1030E800616464722F2831554C203C3C20313229D0
:1030F8005D20262030783034300A000000000000BF
:10310800417373657274696F6E206661696C65647A
:103118003A2070745B335D5B616464722F283155AB
:103128004C203C3C203132295D2026203078303834
:10313800300A000000000000417373657274696F03
:103148006E206661696C65643A2074662D3E657010
:103158006320252034203D3D20300A000000000077
:10316800417373657274696F6E206661696C65641A
:103178003A202122756E65787065637465642065F0
:103188007863657074696F6E220A000000000000A1
:10319800417373657274696F6E206661696C6564EA
:1031A8003A202122756E737570706F727465642091
:0C31B80073617470206D6F6465220A0062
:040000058000000077
:00000001FF
