:0200000480007A
:100000006F00C0006F20802C6F20402C93000000F8
:10001000130100009301000013020000930200008E
:100020001303000093030000130400009304000076
:10003000130500009305000013060000930600005E
:100040001307000093070000130800009308000046
:100050001309000093090000130A0000930A00002E
:10006000130B0000930B0000130C0000930C000016
:10007000130D0000930D0000130E0000930E0000FE
:10008000130F0000930F00009702000093820201FB
:10009000739052307350447497020000938202F7B9
:1000A0007390523017D100001301C1E3F32240F1E5
:1000B0009392C2003301510073100134EF20D01C21
:1000C000173500001305C59D6F20007C8332851015
:1000D000739012148330850003310501833185014B
:1000E000033205028332850203330503833385031C
:1000F00003340504833485048335850503360506FA
:1001000083368506033705078337850703380508D7
:10011000833885080339050983398509033A050AB7
:10012000833A850A033B050B833B850B033C050C97
:10013000833C850C033D050D833D850D033E050E77
:10014000833E850E033F050F833F850F033505056D
:10015000730020107311011423341100233C31006B
:10016000233041022334510223386102233C7102BF
:1001700023308104233491042338A104233CB104A7
:100180002330C1062334D1062338E106233CF1068F
:10019000233001092334110923382109233C310973
:1001A0002330410B2334510B2338610B233C710B5B
:1001B0002330810D2334910D2338A10D233CB10D43
:1001C0002330C10F2334D10F2338E10F233CF10F2B
:1001D000F312011423385100F32200102330511080
:1001E000F322101423345110F32230142338511009
:1001F000F3222014233C5110130501006F20003B13
:1010000000000000000000000000000000000000E0
:1010100000000000000000000000000000000000D0
:1010200000000000000000000000000000000000C0
:1010300000000000000000000000000000000000B0
:081040000000000000000000A8
:10200000B3E7C500B367F50093F77700B306C500E3
:10201000638407023386C50093070500637ED502FB
:1020200003C705009385150093871700A38FE7FE6C
:10203000E318B6FE67800000E37ED5FE9307050037
:1020400003B70500938787009385850023BCE7FECF
:10205000E3E8D7FE6780000067800000130101FFFE
:10206000B367C500233081002334110093F7770054
:10207000130405003307C500638207026376E50099
:1020800093F5F50FEFF09FFD8330810013050400F9
:10209000033401001301010167800000B70701014B
:1020A000938717109397070193871710939707014A
:1020B00093F5F50F93871710B385F502E376E5FCEA
:1020C000930705009387870023BCB7FEE3ECE7FE88
:1020D0008330810013050400033401001301010162
:1020E0006780000083470500638E070093070500A3
:1020F00003C7170093871700E31C07FE3385A7402B
:10210000678000001305000067800000834705001A
:10211000938515001305150003C7F5FF638A0700B3
:10212000E386E7FE1B8507003B05E540678000006E
:10213000130500006FF05FFFB367B50093F77700FA
:10214000639E0702137886FF330805016378050351
:10215000930705006F000001938787009385850032
:1021600063F8070183B6070003B70500E386E6FEC0
:102170003385A7403306A640138507003386C50084
:102180006F00400103C705008347F5FF93851500E5
:10219000639AE70013051500E396C5FE13050000DA
:1021A000678000003B85E7406780000093070500DB
:1021B00003C705009387170093851500A38FE7FEDB
:1021C000E31807FE6780000003470500930600023E
:1021D000930705006318D70003C7170093871700FC
:1021E000E30CD7FE9306D002630ED7049306B00229
:1021F0006300D70483C6070093050000638C0604C0
:102200001305000093871700131725001B8606FD92
:1022100083C607003307A700131717003305E6002E
:10222000E39206FE638A05023305A0406780000042
:1022300083C6170093871700638E0600930500007E
:102240006FF01FFC83C617009305100093871700DB
:10225000E39806FA13050000678000008347050035
:10226000638007049305101017F7FFFF130787D942
:10227000939505030336070013051500B3E6B70071
:10228000630A060097F7FFFF23BE07DA83370700CC
:10229000E39A07FE2330D70083470500E39C07FC41
:1022A0006780000017F7FFFF1307C7D583370700C4
:1022B000638A070097F7FFFF23B607D88337070025
:1022C000E39A07FE2330A7006F000000130101FF0F
:1022D0001305903423341100EFF0DFFC130101FEED
:1022E0001306810013077101130890006F0080002E
:1022F000138707009376F500938506009307700512
:102300006364D80093070003BB87B7002300F7007E
:10231000135545009307F7FFE31CE6FC8347810054
:10232000230C0100638207041305101093060600B6
:1023300017F7FFFF130707CD1315050383350700B4
:102340009386160033E6A700638A050097F7FFFF20
:1023500023BA07CE83370700E39A07FE83C7060038
:102360002330C700E39C07FC1301010267800000D3
:10237000130101FB9307100037F7FFFF2322F10041
:102380002334110423340100B306E500B7E703004A
:1023900023308104233C9102233821032334310369
:1023A00063F6F61A9359C500938409601739000043
:1023B000130949C593973400B307F90083B70700A1
:1023C0003374E500639A071017770000130707C4FA
:1023D00023304103033A0700233C510163040A1AE6
:1023E00083378A009776000083B6C6C12330F70092
:1023F0006388D71413064100930581001305040078
:10240000833A0A00EF000069631C051093D6CA00E6
:102410009396A60093E6F60193973400B307F9006C
:1024200013E7060C23B0E70073000412972700009F
:10243000938747BD93994900B387370103B70700D6
:10244000631C071403370A00B705040023B0E70034
:1024500003378A0023B4E700F3A50510B707E0FFB0
:10246000B307F40037160000130704003386C700D3
:1024700003B3070083B8870003B8070103B58701DA
:10248000233067002334170123380701233CA700BA
:102490009387070213070702E39CC7FC739005109C
:1024A00093973400B304F90023B0D40073000412EE
:1024B0000F1000000334010483308104033A010249
:1024C000833A810183348103033901038339810213
:1024D000130101056780000013F70704630E07046A
:1024E00013F70708631207081307F00093E70708BC
:1024F000639CE50693943400B304990023B0F40080
:102500007300041203340104833081048334810393
:10251000033901038339810213010105678000003B
:1025200083360A008337810093D6C6009396A600AF
:10253000B3E6F6006FF05FEE93E707046FF09FFBE2
:102540009777000023B007AC6FF0DFEA17150000A3
:10255000130545BC23304103233C5101EFF01FD04C
:1025600013053000EFF01FD417150000130505BF49
:1025700023304103233C5101EFF05FCE13053000BF
:10258000EFF05FD2171500001305C5C1EFF01FCDA6
:1025900013053000EFF01FD117150000130505C219
:1025A000EFF0DFCB13053000EFF0DFCF130101F8C0
:1025B00023388106233C110613040500EF00004D6B
:1025C0006312050E83358411930780006386F5122C
:1025D00093072000638AF502938745FF13071000D5
:1025E0006376F7009307F0006398F5240335041130
:1025F000EFF01FD81305040003340107833081076F
:10260000130101086FD09FAC033784109377370014
:102610006394070A03270700EF0780007310300058
:1026200083A707002334910623302107233C31057B
:10263000233841052334510523306105233C7103C0
:1026400023388103233491032330A103233CB101B8
:102650006300F70613051010930710049716000087
:102660009386C6B917F7FFFF1307C799131505031C
:10267000833507009386160033E6A700638A0500BA
:1026800097F7FFFF23B0079C83370700E39A07FE05
:1026900083C706002330C700E39C07FC1305300006
:1026A000EFF05FC013050400EFD05FA26FF09FF161
:1026B00013051000EFF01FBF17150000130505BE2E
:1026C0002334910623302107233C3105233841056B
:1026D0002334510523306105233C710323388103E2
:1026E000233491032330A103233CB101EFF01FB742
:1026F00013053000EFF01FBB832704052334910638
:10270000233841052334510523306105233C7103EF
:1027100023388103233491032330A103233021077D
:10272000233C3105233CB1012334F100B7140000F0
:10273000972A0000938A0A8D173D0000130D8D8C97
:10274000B70C0400370CE0FF177A0000130A8A8BDD
:10275000977B0000938B8B8B37FB030093D7C400D0
:102760001399470033872A0103370700630C0708D2
:102770009387076093973700B307FD0083B907007D
:1027800093F709046380070AF3AD0C1033848401C6
:10279000371600009305040013850400EFF0DF995D
:1027A0006304050493F909086386090CB716000051
:1027B0001387040093070400B386D400033807008E
:1027C00003358700833507010336870123B00701EE
:1027D00023B4A70023B8B70023BCC7001307070220
:1027E00093870702E31CD7FCB3872A0173900D106F
:1027F00003370A0023B00700630007022334F70001
:102800002330FA00B7170000B384F400E39864F5AE
:1028100003358100EFF01FA92330FA0023B0FB003D
:102820006FF05FFE17150000130545A0EFF01FA322
:1028300013053000EFF01FA717150000130585A83A
:102840002334910623302107233C310523384105E9
:102850002334510523306105233C71032338810360
:10286000233491032330A103233CB101EFF01F9FD8
:102870006FF0DFE2171500001305C59EEFF01F9EF5
:1028800013053000EFF01FA2F32740F1639E0718F5
:1028900097470000938707779735000093858576E3
:1028A000175800001308087693D7C700130101EDED
:1028B000972800009388087593D6C5001357C80061
:1028C0009397A700233081122334111213040500BB
:1028D00093E7170013D6C8009396A6001317A70016
:1028E0003705002093E616001305F50C1367170053
:1028F00023BCF5FE9367060023B0D800233CA8FE56
:1029000023B0E5009397F72B7390071873270018EF
:102910006392E7169317502B1307F0019387F7FF85
:102920009702000093824201F39252307390073B6A
:102930007310073A739052309306F0BF9396560186
:1029400097E7FFFF93874781B387D70073905710AE
:10295000F3270034B387D70073900714B7B700008C
:102960009B87071073902730B7E701009B870760AC
:10297000739007307350403017270000130787A764
:102980009387063E1308F0BFB306D700B307F700DE
:10299000B708080013185801176600002338D666D8
:1029A00017230000130303E49766000023BCF664BA
:1029B0009388F803930770011308080113D61700D2
:1029C000B3861701B347F600B30507019396C60017
:1029D000939757002330D7002334B70093F70702AB
:1029E00013070701B367F600E31AE3FC13060012AE
:1029F00093050000130501009727000023B007DEB0
:102A0000EFF0CFE5B70700803304F40013050100B1
:102A100023348110EFD08FEB833081120334011205
:102A20001301011367800000B7474205B70608008D
:102A30009387E7389386C6FF1315F0299315E02B8B
:102A40006F00C0012F20070013D71700B3C7E7009E
:102A50009397E703B3F7B700B3E7E70033F7D7007F
:102A600013F617003307A700E31E06FC0320070038
:102A70006FF09FFD171500001305C587EFF00FFEDF
:102A800013053000EFF01F8267800000130500007F
:102A9000678000001305000067800000930120009C
:102AA0009300100013010000339720689303000087
:102AB000631277649301300093001000130110003B
:102AC00033972068930330006316776293014000C8
:102AD00093001000130170003397206893031008CF
:102AE000631A776093015000930010001301E00017
:102AF00033972068B74300009B831300631C775E05
:102B000093016000930010001301F00133972068D7
:102B10009B0310009393F30193831300631C775C72
:102B2000930170009300F0FF1301000033972068B9
:102B30009303E0FF6310775C930180009300F0FF44
:102B400013011000339720689303D0FF6314775A62
:102B5000930190009300F0FF1301700033972068F9
:102B60009303F0F7631877589301A0009300F0FFE8
:102B70001301E00033972068B7C3FFFF9B83F3FF87
:102B8000631A77569301B0009300F0FF1301F00130
:102B9000339720689B03F0FF9393F3019383F3FF34
:102BA000631A77549301C000B72021219B80101233
:102BB0001301000033972068B72321219B83031260
:102BC000631A77529301D000B72021219B80101205
:102BD0001301100033972068B72321219B83331200
:102BE000631A77509301E000B72021219B801012D7
:102BF0001301700033972068B72321219B83131A98
:102C0000631A774E9301F000B72021219B801012A8
:102C10001301E00033972068B76321219B831312CF
:102C2000631A774C93010001B72021219B80101279
:102C30001301F00133972068B71305009B8393902D
:102C40009393D300938313126316774A9301100171
:102C5000B72021219B801012130100FC33972068BC
:102C6000B72321219B830312631677489301200128
:102C7000B72021219B801012130110FC339720688C
:102C8000B72321219B8333126316774693013001CA
:102C9000B72021219B801012130170FC339720680C
:102CA000B72321219B83131A6316774493014001B4
:102CB000B72021219B8010121301E0FC339720687C
:102CC000B76321219B83131263167742930150014E
:102CD000B72021219B8010121301F0FF3397206849
:102CE0009B03F0FF93936302938313019393C300B9
:102CF000938393909393D30093831312631C773E33
:102D000093012003930010001301F0033397206810
:102D10009B03F0FF9393F30393831300631C773CAF
:102D2000930130039300F0FF130170023397206882
:102D30009B03F0FF939373029383F3FF631C773A33
:102D400093014003B72021219B8010121301B00290
:102D500033972068B71301409B8393909393D300DC
:102D60009383131263187738930160019300100066
:102D700013017000B390206893031008639C7036B1
:102D800093017001930010001301E000339120685B
:102D9000B74300009B831300631E713493018001CD
:102DA00093003000B39010689303B00063947034C4
:102DB00093019001130200009300100013017000B2
:102DC00033972068130307001302120093022000B8
:102DD000E31452FE93031008631E73309301A001A5
:102DE00013020000930010001301E00033972068E5
:102DF00013000000130307001302120093022000C7
:102E0000E31252FEB74300009B8313006314732E3A
:102E10009301B00113020000930010001301F001B0
:102E2000339720681300000013000000130307000D
:102E30001302120093022000E31052FE9B031000C5
:102E40009393F301938313006316732A9301C001D4
:102E500013020000930010001301700033972068E4
:102E60001302120093022000E31652FE930310088F
:102E7000631277289301D001130200009300100021
:102E80001301E000130000003397206813021200C2
:102E900093022000E31452FEB74300009B8313000B
:102EA000631A77249301E0011302000093001000DD
:102EB0001301F00113000000130000003397206895
:102EC0001302120093022000E31252FE9B03100033
:102ED0009393F30193831300631E77209301F00112
:102EE0001302000093001000130000001301700093
:102EF000339720681302120093022000E31452FE5D
:102F0000930310086318771E930100021302000058
:102F100093001000130000001301E00013000000F4
:102F2000339720681302120093022000E31252FE2E
:102F3000B74300009B831300631E771A93011002AE
:102F400013020000930010001300000013000000A3
:102F50001301F0013397206813021200930220003E
:102F6000E31252FE9B0310009393F301938313002B
:102F700063127718930120021302000013017000FE
:102F80009300100033972068130212009302200070
:102F9000E31652FE93031008631E77149301300268
:102FA000130200001301E000930010001300000062
:102FB000339720681302120093022000E31452FE9C
:102FC000B74300009B8313006316771293014002FE
:102FD000130200001301F001930010001300000021
:102FE00013000000339720681302120093022000A0
:102FF000E31252FE9B0310009393F301938313009B
:10300000631A770E9301500213020000130170003F
:103010001300000093001000339720681302120081
:1030200093022000E31452FE930310086314770CFC
:1030300093016002130200001301E000130000007E
:103040009300100013000000339720681302120051
:1030500093022000E31252FEB74300009B8313004B
:10306000631A770893017002130200001301F00144
:103070001300000013000000930010003397206835
:103080001302120093022000E31252FE9B03100071
:103090009393F30193831300631E770493018002DB
:1030A0009300F00033111068B783000063147104BB
:1030B0009301900293000002339100689303100281
:1030C000631A71029301A002B31000689303100009
:1030D000639270029301B002930000403711000028
:1030E0001B0101803390206893030000631470007B
:1030F000631A300013951100630005001365150075
:10310000730000001305100073000000731000C06E
:10311000417373657274696F6E206661696C656472
:103120003A2061646472203E3D202831554C203C99
:103130003C203132292026262061646472203C2004
:103140003633202A202831554C203C3C203132296E
:103150000A00000000000000417373657274696F1B
:103160006E206661696C65643A20212870745B3357
:103170005D5B616464722F2831554C203C3C2031EA
:1031800032295D202620307830383029202626202C
:103190006361757365203D3D203078660A0000004C
:1031A000417373657274696F6E206661696C6564E2
:1031B0003A206E6F64650A00417373657274696FBB
:1031C0006E206661696C65643A20757365725F6D27
:1031D000617070696E675B616464722F2831554C51
:1031E000203C3C203132295D2E61646472203D3DDB
:1031F00020300A0000000000417373657274696F2B
:103200006E206661696C65643A202122696C6C6588
:1032100067616C20696E737472756374696F6E2276
:103220000A00000000000000417373657274696F4A
:103230006E206661696C65643A2070745B335D5B17
:10324000616464722F2831554C203C3C2031322976
:103250005D20262030783034300A00000000000065
:10326000417373657274696F6E206661696C656421
:103270003A2070745B335D5B616464722F28315552
:103280004C203C3C203132295D20262030783038DB
:10329000300A000000000000417373657274696FAA
:1032A0006E206661696C65643A2074662D3E6570B7
:1032B0006320252034203D3D20300A00000000001E
:1032C000417373657274696F6E206661696C6564C1
:1032D0003A202122756E6578706563746564206597
:1032E0007863657074696F6E220A00000000000048
:1032F000417373657274696F6E206661696C656491
:103300003A202122756E737570706F727465642037
:0C33100073617470206D6F6465220A0008
:040000058000000077
:00000001FF
