:0200000480007A
:100000006F00C004732F2034930F8000630AFF0336
:10001000930F90006306FF03930FB0006302FF038A
:10002000170F0080130F0FFE63040F0067000F000F
:10003000732F203463540F006F00400093E19153FD
:10004000171F000023203FFC6FF09FFF732540F136
:1000500063100500970200009382020173905230F2
:1000600073500018970200009382C20173905230BF
:100070009302F0FF7390023B9302F0017390023AF7
:1000800097020000938282017390523073502030A7
:1000900073503030735040309301000097020000DD
:1000A000938282F673905230130510001315F501F8
:1000B000635805000F00F00F93011000730000005B
:1000C00097020080938202F4638E020073905210B4
:1000D000B7B200009B8292107390223073232030BD
:1000E000E39E62F473500030970200009382420155
:1000F00073901234732540F1730020309300400157
:10010000130160003BD720029303300093012000CD
:10011000631A770C9B001000939000029380C0FE3E
:10012000130160003BD72002B7B3AA2A9B8373AAAE
:10013000930130006318770A930040011301A0FF78
:100140003BD720029303000093014000631C770813
:100150009300C0FE1301A0FF3BD7200293030000D1
:100160009301500063107708B7000080130110005E
:100170003BD72002B7030080930160006314770629
:10018000B70000801301F0FF3BD72002930300006B
:100190009301700063187704B7000080130100001A
:1001A0003BD720029303F0FF93018000631C77028A
:1001B00093001000130100003BD720029303F0FFCF
:1001C0009301900063107702930000001301000078
:1001D0003BD720029303F0FF9301A0006314770044
:1001E000631C30000F00F00F638001009391110039
:1001F00093E11100730000000F00F00F9301100055
:1002000073000000731000C0000000000000000038
:1002100000000000000000000000000000000000DE
:1002200000000000000000000000000000000000CE
:1002300000000000000000000000000000000000BE
:0402400000000000BA
:1010000000000000000000000000000000000000E0
:1010100000000000000000000000000000000000D0
:1010200000000000000000000000000000000000C0
:1010300000000000000000000000000000000000B0
:081040000000000000000000A8
:040000058000000077
:00000001FF
