:0200000480007A
:100000006F000005732F2034930F80006308FF03F7
:10001000930F90006304FF03930FB0006300FF038E
:10002000130F000063040F0067000F00732F2034CC
:1000300063540F006F00400093E19153171F0000BD
:1000400023223FFC171F000023200FFC6FF01FFF2F
:100050009300000013010000930100001302000050
:100060009302000013030000930300001304000038
:100070009304000013050000930500001306000020
:100080009306000013070000930700001308000008
:10009000930800001309000093090000130A0000F0
:1000A000930A0000130B0000930B0000130C0000D8
:1000B000930C0000130D0000930D0000130E0000C0
:1000C000930E0000130F0000930F0000732540F102
:1000D0006310050097020000938202017390523072
:1000E000735044749702000093820201739052305F
:1000F00073500018970200009382420273905230AE
:100100009B021000939252039382F2FF7390023B82
:100110009302F0017390023A73504030970200004E
:1001200093824201739052307350203073503030BC
:100130009301000097020000938202ED7390523009
:10014000130510001315F501635C05000F00F00F97
:10015000930110009308D005130500007300000000
:1001600093020000638A020073905210B7B200003D
:100170009B829210739022307350003097020000DF
:100180009382420173901234732540F17300203042
:1001900093010002B78000009B8000E03771DB060E
:1001A0001B0171DB1311C100130171DB1311C100BD
:1001B000130171DB1311C100130171DB33B7200A86
:1001C000B71300009B8303206316774A9301100244
:1001D000B78000009B8000FC3771DB061B0171DBE0
:1001E0001311C100130171DB1311C100130171DB85
:1001F0001311C100130171DB33B7200AB7130000DC
:100200009B8303246318774693012000930000002A
:100210001301000033B7200A93030000631C7744E6
:1002200093013000930010001301100033B7200A2F
:100230009303000063107744930140009300300063
:100240001301700033B7200A930300006314774250
:1002500093015000930000003781FFFF33B7200A5D
:10026000930300006318774093016000B70000809B
:100270001301000033B7200A93030000631C773E8C
:1002800093017000B70000803781FFFF33B7200A69
:10029000B7B30A009B83B3AA9393C3009383B3AA13
:1002A000939333019383D3FF9393C3009383535565
:1002B0006312773C9301E001B7B0AAFA9B80B0AA21
:1002C0009390C0009380B0AA9390C0009380B0AA8E
:1002D0009390C0009380B0AA370103001B01D1E7BF
:1002E00033B7200AB73301009B83D33C63147738BC
:1002F0009301F001B70003009B80D0E737B1AAFA61
:100300001B01B1AA1311C1001301B1AA1311C1003D
:100310001301B1AA1311C1001301B1AA33B7200A06
:10032000B73301009B83D33C63167734930180007D
:100330009300D0001301B000B3B0200A9303000073
:10034000639A7032930190009300E0001301B000B3
:1003500033B1200A93030000631E71309301A000A3
:100360009300D000B3B0100A930300006394703080
:100370009301B000130200009300D0001301B000FD
:1003800033B7200A13030700130212009302200060
:10039000E31452FE93030000631E732C9301C0000C
:1003A000130200009300E0001301B00033B7200AED
:1003B0001300000013030700130212009302200031
:1003C000E31252FE930300006316732A9301D000D8
:1003D000130200009300F0001301B00033B7200AAD
:1003E00013000000130000001303070013021200A3
:1003F00093022000E31052FE93030000631C732657
:100400009301E000130200009300D0001301B0003C
:1004100033B7200A1302120093022000E31652FEA3
:1004200093030000631877249301F0001302000087
:100430009300E0001301B0001300000033B7200A5E
:100440001302120093022000E31452FE93030000F3
:100450006312772293010001130200009300F00061
:100460001301B000130000001300000033B7200A8E
:100470001302120093022000E31252FE93030000C5
:10048000631A771E93011001130200009300D0003D
:10049000130000001301B00033B7200A130212004A
:1004A00093022000E31452FE930300006314771CB0
:1004B00093012001130200009300E00013000000EC
:1004C0001301B0001300000033B7200A130212001A
:1004D00093022000E31252FE93030000631C77187E
:1004E00093013001130200009300F000130000009C
:1004F000130000001301B00033B7200A13021200EA
:1005000093022000E31252FE930300006314771657
:1005100093014001130200001301B0009300D000CA
:1005200033B7200A1302120093022000E31652FE92
:10053000930300006310771493015001130200002D
:100540001301B0009300E0001300000033B7200A4D
:100550001302120093022000E31452FE93030000E2
:10056000631A771093016001130200001301B000B9
:100570009300F000130000001300000033B7200ABE
:100580001302120093022000E31252FE93030000B4
:100590006312770E93017001130200001301B00083
:1005A000130000009300D00033B7200A130212009A
:1005B00093022000E31452FE93030000631C770AA9
:1005C00093018001130200001301B000130000002A
:1005D0009300E0001300000033B7200A130212005A
:1005E00093022000E31252FE930300006314770885
:1005F00093019001130200001301B00013000000EA
:10060000130000009300F00033B7200A1302120019
:1006100093022000E31252FE93030000631C770450
:100620009301A0019300F0013331100A93030000FD
:10063000631271049301B0019300000233B1000A08
:1006400093030000631871029301C001B330000AE4
:1006500093030000639070029301D0019300100295
:100660001301200233B0200A9303000063147000CA
:10067000631030020F00F00F6380010093911100AE
:1006800093E111009308D005138501007300000069
:100690000F00F00F930110009308D0051305000020
:1006A00073000000731000C0000000000000000094
:0C06B0000000000000000000000000003E
:1010000000000000000000000000000000000000E0
:1010100000000000000000000000000000000000D0
:1010200000000000000000000000000000000000C0
:1010300000000000000000000000000000000000B0
:081040000000000000000000A8
:040000058000000077
:00000001FF
