:0200000480007A
:100000006F00C0006F20C0256F2080259702000080
:100010009382C2FF73905230179100001301816BDD
:10002000F32240F19392C200330151007310013466
:1000300017350000130545AA6F20900A83328510FA
:1000400073901214833085000331050183318501DB
:1000500003320502833285020333050383338503AC
:10006000033405048334850483358505033605068A
:100070008336850603370507833785070338050868
:10008000833885080339050983398509033A050A48
:10009000833A850A033B050B833B850B033C050C28
:1000A000833C850C033D050D833D850D033E050E08
:1000B000833E850E033F050F833F850F03350505FE
:1000C000730020107311011423341100233C3100FC
:1000D000233041022334510223386102233C710250
:1000E00023308104233491042338A104233CB10438
:1000F0002330C1062334D1062338E106233CF10620
:10010000233001092334110923382109233C310903
:100110002330410B2334510B2338610B233C710BEB
:100120002330810D2334910D2338A10D233CB10DD3
:100130002330C10F2334D10F2338E10F233CF10FBB
:10014000F312011423385100F32200102330511010
:10015000F322101423345110F32230142338511099
:10016000F3222014233C5110130501006F20C043DB
:1010000000000000000000000000000000000000E0
:1010100000000000000000000000000000000000D0
:1010200000000000000000000000000000000000C0
:1010300000000000000000000000000000000000B0
:081040000000000000000000A8
:10200000B3E7C500B367F50093F77700B306C500E3
:10201000638407023386C50093070500637ED502FB
:102020009385150003C7F5FF93871700A38FE7FE7D
:10203000E318B6FE67800000E37ED5FE9307050037
:102040009385850003B785FF9387870023BCE7FE50
:10205000E3E8D7FE6780000067800000B367C50033
:1020600093F777003306C50093F5F50F638E0700ED
:10207000930705006372C50493871700A38FB7FE0B
:10208000E31CF6FE6780000093978500B3E5B70078
:1020900093970501B3E7B70093950702B3E5F50001
:1020A000E372C5FE930705009387870023BCB7FE44
:1020B000E3ECC7FE678000006780000083470500EF
:1020C000638E0700930705009387170003C7070077
:1020D000E31C07FE3385A74067800000130500005E
:1020E00067800000130515008347F5FF93851500F1
:1020F00003C7F5FF638A0700E386E7FE1B85070039
:102100003B05E54067800000130500006FF05FFFAE
:10211000B367B50093F7770063940704137886FFDD
:1021200033080501637E050303B705008337050007
:102130006318F702930705006F00000183B60700DC
:1021400003B705006398E6009387870093858500B1
:10215000E3E607FF3385A7403306A6401385070053
:102160003386C5006F004001938515008347F5FF56
:1021700003C7F5FF639AE70013051500E396C5FE54
:1021800013050000678000003B85E7406780000082
:10219000930705009385150003C7F5FF9387170084
:1021A000A38FE7FEE31807FE678000008347050062
:1021B000130700026398E700130515008347050025
:1021C000E38CE7FE1B8757FD1377D70F63020704E5
:1021D0008346050093070500130600006388060484
:1021E00013050000938717009B8506FD1317250034
:1021F00083C607003305A700131515003385A50016
:10220000E39206FE630406003305A04067800000E9
:1022100083461500938737FD13B617009307150003
:10222000E39006FC130500006FF0DFFD13050000CE
:102230006780000097F7FFFF9387C7DC03B70700AD
:10224000630A070017F7FFFF233E07DE03B7070007
:10225000E31A07FE97F7FFFF23B6A7DA6F00000027
:10226000130101FF1305903423341100EFF09FFC9C
:10227000130101FE1306810013077101130890007A
:102280006F008000138707009377F5009305000324
:1022900093F6F70F6374F80093057005BB87B600DB
:1022A0002300F700135545009307F7FFE31CE6FCF6
:1022B00083478100230C0100638407041305101079
:1022C0009306060017F7FFFF1307C7D3131505037F
:1022D000833507009386160033E6A700638A05005E
:1022E00097F7FFFF23B007D683370700E39A07FE6F
:1022F00083C7060097F5FFFF23B6C5D0E39A07FC16
:102300001301010267800000B7F6FFFF3307D50015
:10231000B7E703006374F7149358C5001386086089
:1023200017280000130808CE93173600B307F800EB
:1023300003B707003375D5006306070293760704D9
:102340006380061093760708639806169306F000DC
:102350006394D5161367070823B0E70073000512CE
:1023600067800000976700009387474803B707001E
:10237000630C0718833787009766000093868646AC
:1023800083B606009765000023B2F5466382D70C3A
:102390008337070093153600B305B80093D7C700FD
:1023A0009397A70013E3F70D93E6F70123B06500B9
:1023B00073000512976700009387C703939848003E
:1023C000B388170183B7080063980718833707009D
:1023D00023B0F8008337870023B4F800B70804005F
:1023E000F3A80810B707E0FFB307F500B715000022
:1023F00013070500B385B70003BF070083BE87003E
:1024000003BE070103B387012330E7012334D7015B
:102410002338C701233C670093870702130707028D
:10242000E39CB7FC7390081013163600B307C8007E
:1024300023B0D700730005120F1000006780000062
:102440001367070423B0E7007300051267800000DC
:102450009767000023B807386FF09FF3130610103A
:1024600013071004971600009386C6B597F7FFFF71
:10247000938747B91316060303B507009386160022
:10248000B365C700630A050017F7FFFF233C07BACF
:1024900003B70700E31A07FE03C7060017F5FFFF9F
:1024A0002332B5B6E31A07FC130101FF1305300010
:1024B00023341100EFF01FD8130610101307100477
:1024C00097160000938686B497F7FFFF938787B32C
:1024D0001316060303B5070093861600B365C700FD
:1024E000630A050017F7FFFF233E07B403B7070091
:1024F000E31A07FE03C7060017F5FFFF2334B5B044
:10250000E31A07FC6FF05FFA93061010130710042C
:1025100017160000130606B497F7FFFF938787AEE0
:102520009396060303B5070013061600B365D7009C
:10253000630A050017F7FFFF233607B003B707004C
:10254000E31A07FE0347060017F5FFFF233CB5AA71
:10255000E31A07FC6FF05FF59306101013071004E1
:1025600017160000130686B097F7FFFF938787A919
:102570009396060303B5070013061600B365D7004C
:10258000630A050017F7FFFF233E07AA03B70700FA
:10259000E31A07FE0347060017F5FFFF2334B5A62D
:1025A000E31A07FC6FF05FF083358511130101F921
:1025B0002330810623341106233C9104233821055E
:1025C0002334310523304105233C51032338610373
:1025D0002334710323308103233C91012338A1016B
:1025E0002334B1019307800013040500638AF512B8
:1025F000930720006380F506938745FF13071000BB
:102600006376F7009307F0006394F51E0335041119
:10261000EFF09FCF130504000334010683308106D9
:10262000833481050339010583398104033A0104A8
:10263000833A8103033B0103833B8102033C010294
:10264000833C8101033D0101833D810013010107AA
:102650006FD0DF9E0337851093773700639A0706A4
:10266000EF078000731030000327070083A70700DF
:10267000630CF7041305101093071004971600005D
:10268000938646AC17F7FFFF1307C797131505038B
:10269000833507009386160033E6A700638A05009A
:1026A00097F7FFFF23B0079A83370700E39A07FEE7
:1026B00083C7060097F5FFFF23B6C594E39A07FC8E
:1026C00013053000EFF01FB713051000EFF09FB6B1
:1026D0009307101017160000130646A49306100463
:1026E00017F7FFFF130707929397070303350700B8
:1026F00013061600B3E5F600630A050097F6FFFF20
:1027000023B2069483360700E39A06FE834606004A
:1027100017F5FFFF2338B58EE39A06FC6FF05FFADA
:1027200003290505371C000097640000938484CCBE
:10273000972B0000938B0B8D370B0400B70AE0FF3B
:10274000176A0000130A0A0AB7F903006F00C001F4
:102750002334F700176700002336F708B717000087
:10276000330CFC00630A3C179357CC0013944700CA
:102770003387840003370700E30207FE938707606F
:1027800093973700B387FB0083BC070093F70C04D3
:10279000638E070E732D0B10B30D5C01371600000E
:1027A00093850D0013050C00EFF09F96630E050056
:1027B00093FC0C0863860C083716000093850D0007
:1027C00013050C00EFF0DF83B387840073100D1046
:1027D00003370A0023B00700E31C07F61767000061
:1027E0002332F700176700002332F7006FF01FF75E
:1027F000930710101306100497160000938686970F
:1028000017F7FFFF130707809397070303350700A8
:1028100093861600B365F600630A050017F6FFFFFE
:102820002332068203360700E31A06FE03C60600BB
:1028300017E5FFFF2338B57CE31A06FC6FF05FE86D
:1028400093071010130610049716000093868689CC
:1028500017E7FFFF1307077B93970703938616007D
:10286000B365F6006F00C00017E6FFFF233C067C4F
:1028700003360700E31A06FE03C6060017E5FFFF4E
:102880002332B578E31C06FC6FF09FE3930710102A
:1028900013061004971600009386468117E7FFFF82
:1028A000130747769397070393861600B365F600E0
:1028B0006F00C00017E6FFFF2336067803360700D7
:1028C000E31A06FE03C6060017E5FFFF233CB572B8
:1028D000E31C06FC6FF0DFDE13050900EFF09F95A7
:1028E000F32740F1639A07189726000093868671B4
:1028F000173700001307077193D6C6001357C70098
:1029000097470000938707709396A6001317A700B8
:1029100093E616001367170093D7C70097180000B7
:1029200023B2D86E9397A7009726000023B8E66CD1
:10293000370700201307F70C9305F0FF93E7170004
:10294000171600001306066C130101ED1398F5032A
:102950009746000023B4E66A172700002334F76A7D
:102960009357C6002334111223308112B3E70701B5
:10297000739007189307F0019702000093824201B9
:10298000F39252307390053B7390073A1308F0BFEF
:102990001318580197D7FFFF93870773B387070171
:1029A00073905710F3270034B3870701739007140F
:1029B000B7B700009B87071073902730B7E7010077
:1029C00073900730735040309756000093868663AB
:1029D000B38706011387073E176600002338F6E029
:1029E0009767000023B0E7E017630000130383A09C
:1029F00093076002B7080800130808011B87F70354
:102A0000131707021BD6170013570702B3C7C700D7
:102A100033071701B38506011317C7009B975700AB
:102A200023B0E60023B4B60093F7070293860601AD
:102A3000B3E7C700E314D3FC130405001306001228
:102A400093050000130501009767000023B0079A63
:102A5000EFF0CFE0B70700803304F4001305010066
:102A600023348110EFD08FDD8330811203340112C3
:102A70001301011367800000B7F74D05B705080083
:102A8000938727B09385C5FF1306100033F7B7006F
:102A90001316F60193F617009397070293D70702D0
:102AA0003307C700638206022F20070093D7170061
:102AB00033F7B70093F617009397070293D70702EF
:102AC0003307C700E39206FE0320070093D71700E1
:102AD0006FF01FFEB78000009B8000E03771DB06BF
:102AE0001B0171DB1311C100130171DB1311C10054
:102AF000130171DB1311C100130171DB3387200255
:102B0000B71300009B83032093010002631A7748E8
:102B1000B78000009B8000FC3771DB061B0171DB76
:102B20001311C100130171DB1311C100130171DB1B
:102B30001311C100130171DB33872002B7130000AA
:102B40009B83032493011002631C774493000000CD
:102B5000130100003387200293030000930120003B
:102B60006310774493001000130110003387200294
:102B700093031000930130006314774293003000F8
:102B8000130170003387200293035001930140002A
:102B900063187740930000003781FFFF33872002DE
:102BA0009303000093015000631C773EB700008040
:102BB000130100003387200293030000930160009B
:102BC0006310773EB70000803781FFFF3387200214
:102BD0009B0310009393E302930170006312773C10
:102BE000B7B0AAFA9B80B0AA9390C0009380B0AA15
:102BF0009390C0009380B0AA9390C0009380B0AA35
:102C0000370103001B01D1E733872002B70301001E
:102C10009B83F3F79301E00163147738B700030057
:102C20009B80D0E737B1AAFA1B01B1AA1311C100EA
:102C30001301B1AA1311C1001301B1AA1311C100EC
:102C40001301B1AA33872002B70301009B83F3F776
:102C50009301F001631677349300D0001301B000A4
:102C6000B38020029303F00893018000639A7032CE
:102C70009300E0001301B000338120029303A00908
:102C800093019000631E71309300D000B380100256
:102C90009303900A9301A000639470301302000024
:102CA0009300D0001301B000338720021303070004
:102CB0001302120093022000E31452FE9303F00863
:102CC0009301B000631E732C130200009300E00018
:102CD0001301B00033872002130000001303070024
:102CE0001302120093022000E31252FE9303A00984
:102CF0009301C0006316732A130200009300F000D2
:102D00001301B000338720021300000013000000FD
:102D1000130307001302120093022000E31052FE77
:102D20009303500A9301D000631C73261302000022
:102D30009300D0001301B000338720021302120069
:102D400093022000E31652FE9303F0089301E00083
:102D500063187724130200009300E0001301B00011
:102D60001300000033872002130212009302200098
:102D7000E31452FE9303A0099301F000631277223B
:102D8000130200009300F0001301B00013000000D4
:102D90001300000033872002130212009302200068
:102DA000E31252FE9303500A93010001631A771E47
:102DB000130200009300D000130000001301B000C4
:102DC000338720021302120093022000E31452FE04
:102DD0009303F008930110016314771C13020000A1
:102DE0009300E000130000001301B0001300000086
:102DF000338720021302120093022000E31252FED6
:102E00009303A00993012001631C771813020000AB
:102E10009300F00013000000130000001301B00045
:102E2000338720021302120093022000E31252FEA5
:102E30009303500A930130016314771613020000C4
:102E40001301B0009300D000338720021302120058
:102E500093022000E31652FE9303F0089301400111
:102E600063107714130200001301B0009300E00018
:102E70001300000033872002130212009302200087
:102E8000E31452FE9303A00993015001631A7710D3
:102E9000130200001301B0009300F00013000000C3
:102EA0001300000033872002130212009302200057
:102EB000E31252FE9303500A930160016312770EEE
:102EC000130200001301B000130000009300D000B3
:102ED000338720021302120093022000E31452FEF3
:102EE0009303F00893017001631C770A130200003A
:102EF0001301B000130000009300E0001300000075
:102F0000338720021302120093022000E31252FEC4
:102F10009303A00993018001631477081302000052
:102F20001301B00013000000130000009300F00034
:102F3000338720021302120093022000E31252FE94
:102F40009303500A93019001631C77049300F001EE
:102F500033011002930300009301A0016312710476
:102F60009300000233810002930300009301B0013B
:102F700063187102B3000002930300009301C001C3
:102F8000639070029300100213012002338020022C
:102F9000930300009301D00163147000631A3000A2
:102FA0001395110063000500136515007300000000
:0C2FB0001305100073000000731000C037
:102FC000417373657274696F6E206661696C6564C4
:102FD0003A2061646472203E3D202831554C203CEB
:102FE0003C203132292026262061646472203C2056
:102FF0003633202A202831554C203C3C20313229C0
:103000000A00000000000000417373657274696F6C
:103010006E206661696C65643A20212870745B33A8
:103020005D5B616464722F2831554C203C3C20313B
:1030300032295D202620307830383029202626207D
:103040006361757365203D3D203078660A0000009D
:10305000417373657274696F6E206661696C656433
:103060003A206E6F64650A00417373657274696F0C
:103070006E206661696C65643A20757365725F6D78
:10308000617070696E675B616464722F2831554CA2
:10309000203C3C203132295D2E61646472203D3D2C
:1030A00020300A0000000000417373657274696F7C
:1030B0006E206661696C65643A2070745B335D5B99
:1030C000616464722F2831554C203C3C20313229F8
:1030D0005D20262030783034300A000000000000E7
:1030E000417373657274696F6E206661696C6564A3
:1030F0003A2070745B335D5B616464722F283155D4
:103100004C203C3C203132295D202620307830385C
:10311000300A000000000000417373657274696F2B
:103120006E206661696C65643A2074662D3E657038
:103130006320252034203D3D20300A00000000009F
:10314000417373657274696F6E206661696C656442
:103150003A202122696C6C6567616C20696E73741A
:1031600072756374696F6E220A000000000000002F
:10317000417373657274696F6E206661696C656412
:103180003A202122756E65787065637465642065E8
:103190007863657074696F6E220A00000000000099
:040000058000000077
:00000001FF
