:0200000480007A
:100000006F00C0006F20C0276F208027970200007C
:100010009382C2FF739052301761000013010135C3
:10002000F32240F19392C200330151007310013466
:1000300017350000130505BC6F2090218322450869
:100040007390121483204500032185008321C5008D
:100050000322050183224501032385018323C50172
:1000600003240502832445028325C50203260503D4
:1000700083264503032785038327C5030328050437
:1000800083284504032985048329C504032A05051B
:10009000832A4505032B8505832BC505032C0506FF
:1000A000832C4506032D8506832DC506032E0507E3
:1000B000832E4507032F8507832FC5070325850258
:1000C0007300201073110114232211002326310024
:1000D00023284100232A5100232C6100232E710084
:1000E00023208102232291022324A1022326B1028C
:1000F0002328C102232AD102232CE102232EF1025C
:10010000232001052322110523242105232631055F
:1001100023284105232A5105232C6105232E71052F
:1001200023208107232291072324A1072326B10737
:100130002328C107232AD107232CE107232EF10707
:10014000F312011423245100F3220010232051083C
:10015000F322101423225108F322301423245108CF
:10016000F322201423265108130501006F20C051EB
:1010000000000000000000000000000000000000E0
:1010100000000000000000000000000000000000D0
:1010200000000000000000000000000000000000C0
:1010300000000000000000000000000000000000B0
:081040000000000000000000A8
:10200000B3E7C500B367F50093F73700B306C50023
:10201000638407023386C50093070500637ED502FB
:102020009385150003C7F5FF93871700A38FE7FE7D
:10203000E318B6FE67800000E37ED5FE9307050037
:102040009385450003A7C5FF9387470023AEE7FEAE
:10205000E3E8D7FE6780000067800000B367C50033
:1020600093F737003306C5006380070293F5F50F39
:10207000930705006370C50493871700A38FB7FE0D
:10208000E31CF6FE6780000093F5F50F939785003B
:10209000B3E7B70093950701B3E5F500E374C5FE18
:1020A000930705009387470023AEB7FEE3ECC7FE16
:1020B000678000006780000083470500638E07008B
:1020C000930705009387170003C70700E31C07FE6B
:1020D0003385A7406780000013050000678000007B
:1020E000130515008347F5FF9385150003C7F5FF1A
:1020F00063880700E386E7FE3385E74067800000DA
:10210000930700006FF05FFFB367B50093F73700E8
:10211000639407041378C6FF33080501637E050343
:1021200003A70500832705006318F702930705003E
:102130006F00000183A6070003A705006398E6006F
:102140009387470093854500E3E607FF3385A74063
:102150003306A640138507003386C5006F00400193
:10216000938515008347F5FF03C7F5FF639AE700E2
:1021700013051500E396C5FE1305000067800000F7
:102180003385E740678000009307050093851500BD
:1021900003C7F5FF93871700A38FE7FEE31807FE39
:1021A0006780000083470500130700026398E7007B
:1021B0001305150083470500E38CE7FE138757FDE1
:1021C0001377D70F630207048346050093070500C2
:1021D00013060000638806041305000093871700A8
:1021E000938506FD1317250083C607003305A70056
:1021F000131515003385A500E39206FE630406005F
:102200003305A0406780000083461500938737FDA3
:1022100013B6170093071500E39006FC13050000A2
:102220006FF0DFFD130500006780000097F6FFFFE9
:10223000938646DD03A7060083A746001308050022
:102240009358F5413367F7006306070217F6FFFF5F
:10225000130646DF130700002320E6009307000063
:102260002322F60003A7060083A746003367F70082
:10227000E31207FE23A0060123A216016F0000004F
:10228000130101FF1305903423261100EFF01FFA0C
:10229000130101FE1306C1009306B1011303900060
:1022A0006F008000938607001377F500B337E300D3
:1022B000B307F04093F7770293870703B307F7005C
:1022C0002380F6001397C501135545009387F6FF49
:1022D0003365A70093D54500E316D6FC0345C1003E
:1022E000230E0100630205069305060097F6FFFF23
:1022F000938646D117F6FFFF1306C6D403A7060040
:1023000083A7460013080500938515003367F7007F
:10231000B708010163020702130700002320E6004B
:10232000930700002322F60003A7060083A74600B8
:102330003367F700E31207FE03C5050023A006017B
:1023400023A21601E31C05FA1301010267800000B5
:10235000130101FF37F6FFFF23261100232481001C
:10236000232291003307C500B7E703006374F71613
:102370009356C500138E064017130000130383C83D
:1023800093172E00B307F30003A707003375C500AA
:102390006318070E973700009387070683A5070089
:1023A0006388052083A745001737000013078704BB
:1023B00003270700173600002320F6046386E71082
:1023C00003A7050093172E00B307F3001357C700A8
:1023D0001317A700936EF70D1366F70123A0D7011B
:1023E0007300051297370000938747E193963600F4
:1023F000B386D70083A706006392072283A7050050
:1024000023A0F60083A74500B705040023A2F60029
:10241000F3A50510B707C0FFB307F500B716000016
:1024200013070500B386D70003AF070083AE47004C
:1024300083A8870003A8C7002320E7012322D70130
:102440002324170123260701938707011307070198
:10245000E39CD7FC7390051093172E00B307F3008D
:1024600023A0C700730005120F1000008320C100D5
:1024700003248100832441001301010167800000CF
:1024800093760704638A060293760708639C060A1C
:102490009306F0006398D50A1367070823A0E700A6
:1024A000730005128320C1000324810083244100AE
:1024B00013010101678000001367070423A0E700F0
:1024C000730005126FF01FFE9737000023A407F278
:1024D0006FF01FEF13051004971500009385859189
:1024E00097F6FFFF938606B217F6FFFF130686B531
:1024F00003A7060083A74600130305009385150074
:102500003367F700B7030101630207029307000076
:102510002320F600130800002322060103A706006B
:1025200083A746003367F700E31207FE03C50500E3
:1025300023A0660023A27600E31C05FA13053000F1
:10254000EFF0DFCE13051004971500009385C58EBC
:1025500097F6FFFF938606AB17F6FFFF130686AECE
:1025600003A7060083A74600130F050093851500F7
:102570003367F700B70F01016302070293070000FA
:102580002320F600130800002322060103A70600FB
:1025900083A746003367F700E31207FE03C5050073
:1025A00023A0E60123A2F601E31C05FA6FF01FF950
:1025B00013051004971500009385858C97F6FFFF8F
:1025C000938646A417F6FFFF1306C6A703A70600C7
:1025D00083A7460013040500938515003367F700B1
:1025E000B704010163020702930700002320F600ED
:1025F000130800002322060103A7060083A7460054
:102600003367F700E31207FE03C5050023A0860029
:1026100023A29600E31C05FA6FF05FF21305100485
:10262000971500009385458797F6FFFF9386869D53
:1026300017F6FFFF130606A103A7060083A74600AF
:1026400013080500938515003367F700B7080101EB
:1026500063020702130700002320E600930700002F
:102660002322F60003A7060083A746003367F7007E
:10267000E31207FE03C5050023A0060123A21601ED
:10268000E31C05FA6FF09FEB8325C508130101FBDE
:1026900023248104232611042322910423202105CD
:1026A000232E3103232C4103232A510323286103C2
:1026B0002326710323248103232291032320A103D2
:1026C000232EB10193078000130405006386F516DD
:1026D000930720006380F506938745FF13071000DA
:1026E0006376F7009307F000639AF52203258408C8
:1026F000EFF01FC613050400032481048320C104E6
:1027000083244104032901048329C103032A81038B
:10271000832A4103032B0103832BC102032C810273
:10272000832C4102032D0102832DC10113010105F8
:102730006FD0DF9003274508937737006398070829
:10274000EF078000731030000327070083A70700FE
:10275000630AF7061305100497150000938545805A
:1027600097F6FFFF9386068A17F6FFFF1306868DFE
:1027700003A7060083A746001308050093851500EC
:102780003367F700B708010163020702130700006F
:102790002320E600930700002322F60003A706008B
:1027A00083A746003367F700E31207FE03C5050061
:1027B00023A0060123A21601E31C05FA130530002D
:1027C000EFF0DFA613051000EFF05FA697050000FD
:1027D0009385C5761306100497F6FFFF93868682CD
:1027E00017F5FFFF1305058603A7060083A746001C
:1027F000130E0600938515003367F700B70E01012D
:1028000063020702930700002320F500130800006D
:102810002322050103A7060083A746003367F700BC
:10282000E31207FE03C6050023A0C60123A2D601BA
:10283000E31C06FA6FF09FF883278502371B000020
:10284000973400009384849B2322F100170D00002D
:10285000130D4D7BB70C0400370CC0FF973B0000F5
:10286000938B4BB96F00000223A2870097370000BB
:1028700023A287B8B7170000330BFB00B7F703009C
:102880006304FB1C9357CB0013943700B38684007A
:1028900083A60600E38006FE9387074093972700F0
:1028A000B307FD0083A7070093F60704638E0612A3
:1028B0002326F100F3AD0C10B3068B013716000090
:1028C0009385060013050B002324D100EFF0DF836E
:1028D000630205028327C1008326810093F707085E
:1028E0006384070A371600009385060013050B0062
:1028F000EFF00FF13384840073900D1083A70B0069
:1029000023200400E39207F69737000023A487AE44
:102910009737000023A287AE6FF0DFF59305100410
:10292000170600001306866697E6FFFF9386866DFE
:1029300017E5FFFF1305057103A7060083A74600EF
:1029400013830500130616003367F700B703010170
:1029500063020702930700002320F500130800001C
:102960002322050103A7060083A746003367F7006B
:10297000E31207FE8345060023A0660023A276002B
:10298000E39C05FA6FF09FE393071004170600001D
:102990001306865797E6FFFF9386C66697E5FFFF07
:1029A0009385456A1389070013061600B7090101CC
:1029B0006F004001930700001308000023A0F500FA
:1029C00023A2050103A7060083A746003367F7008B
:1029D000E31207FE8347060023A0260123A2360147
:1029E000E39207FC6FF09FDD9307100417060000C9
:1029F0001306464E97E6FFFF9386C66097E5FFFFF6
:102A000093854564138A070013061600B70A01016F
:102A10006F004001930700001308000023A0F50099
:102A200023A2050103A7060083A746003367F7002A
:102A3000E31207FE8347060023A0460123A25601A6
:102A4000E39207FC6FF09FD703254100EFF00FFEE4
:102A5000F32740F1639A0714971700009387875A6A
:102A600093D7C7009397A70093E717009706000036
:102A700023AAF658B7070020170700001307875846
:102A80009387F70C130101F69716000023AAF65658
:102A90009357C70037070080232E1108232C810885
:102AA000B3E7E700739007189307F0011307F0FFEF
:102AB0009702000093824201F39252307310073B59
:102AC0007390073A97D7BF7F93870760739057102B
:102AD000F32700343708C07FB387070173900714CA
:102AE000B7B700009387071073902730B7E701004E
:102AF00073900730735040309727C07F938787507B
:102B000017370000232AF78E9727C07F9387876E99
:102B1000173700002320F78EB7080800172700009A
:102B20001307474E172300001303436D930720013B
:102B30009388F8031308880013D61700B38617018B
:102B4000B347F600B30507019396C6009397570065
:102B50002320D7002322B70093F70702130787002B
:102B6000B367F600E31AE3FC13040500130600093B
:102B700093050000130501009727000023AE0766A8
:102B8000EFF0CFCDB70700803304F4001305010048
:102B900023228108EFD08FCA8320C1090324810931
:102BA0001301010A67800000B757580D3706080067
:102BB000938707221306C6FFB705008033F7C700C7
:102BC00093F617003307B700638E06002F20070027
:102BD00093D7170033F7C70093F617003307B700F2
:102BE000E39606FE0320070093D717006FF09FFEC1
:102BF000B710FF00938000F013C7F0F0B7F300FFA9
:102C00009383F300930120006316771CB710F00F35
:102C1000938000FF13C7000FB713F00F938303F0E7
:102C2000930130006318771AB710FF009380F08F7C
:102C300013C7F070B713FF00938303FF93014000A5
:102C4000631A7718B7F00FF09380F00013C7000FE6
:102C5000B7F30FF09383F30F93015000631C7716C3
:102C6000B7F000FF9380007093C0F070B7F300FFDF
:102C70009383F30093016000639E701413020000BD
:102C8000B710F00F938000FF13C7000F1303070066
:102C90001302120093022000E31452FEB713F00F48
:102CA000938303F093017000631673121302000004
:102CB000B710FF009380F08F13C7F070130000006F
:102CC000130307001302120093022000E31252FEC6
:102CD000B713FF00938303FF93018000631C730EFF
:102CE00013020000B7F00FF09380F00013C7000F3D
:102CF000130000001300000013030700130212006A
:102D000093022000E31052FEB7F30FF09383F30F0A
:102D1000930190006310730C13020000B710F00FC2
:102D2000938000FF13C7000F1302120093022000CC
:102D3000E31652FEB713F00F938303F09301A00044
:102D4000631A770813020000B710FF009380F0FFAA
:102D50001300000013C7F0001302120093022000BA
:102D6000E31452FEB713FF00938303FF9301B000F7
:102D70006312770613020000B7F00FF09380F000A3
:102D8000130000001300000013C7000F130212000D
:102D900093022000E31252FEB7F30FF09383F30F78
:102DA0009301C000631877029340000F9303000F54
:102DB0009301D00063907002B700FF009380F00F82
:102DC00013C0F070930300009301E00063147000DF
:102DD000631A300013951100630005001365150098
:102DE000730000001305100073000000731000C092
:102DF000417373657274696F6E206661696C656496
:102E00003A2061646472203E3D202831554C203CBC
:102E10003C203132292026262061646472203C2027
:102E20003633202A202831554C203C3C2031322991
:102E30000A000000417373657274696F6E206661E9
:102E4000696C65643A20212870745B315D5B616454
:102E500064722F2831554C203C3C203132295D20B2
:102E6000262030783038302920262620636175737B
:102E700065203D3D203078660A000000417373658F
:102E80007274696F6E206661696C65643A206E6F5A
:102E900064650A00417373657274696F6E206661C0
:102EA000696C65643A20757365725F6D61707069F5
:102EB0006E675B616464722F2831554C203C3C2066
:102EC0003132295D2E61646472203D3D20300A005C
:102ED000417373657274696F6E206661696C6564B5
:102EE0003A2070745B315D5B616464722F283155E8
:102EF0004C203C3C203132295D2026203078303473
:102F0000300A0000417373657274696F6E206661E8
:102F1000696C65643A2070745B315D5B61646472F6
:102F20002F2831554C203C3C203132295D20262071
:102F300030783038300A0000417373657274696FFD
:102F40006E206661696C65643A2074662D3E65701A
:102F50006320252034203D3D20300A0041737365F5
:102F60007274696F6E206661696C65643A20212213
:102F7000696C6C6567616C20696E737472756374DB
:102F8000696F6E220A000000417373657274696F85
:102F90006E206661696C65643A202122756E6578E1
:102FA00070656374656420657863657074696F6EBD
:042FB000220A0000F1
:040000058000000077
:00000001FF
