:0200000480007A
:100000006F00C004732F2034930F8000630AFF0336
:10001000930F90006306FF03930FB0006302FF038A
:10002000170F0080130F0FFE63040F0067000F000F
:10003000732F203463540F006F00400093E19153FD
:10004000171F000023203FFC6FF09FFF732540F136
:1000500063100500970200009382020173905230F2
:1000600073500018970200009382C20173905230BF
:100070009302F0FF7390023B9302F0017390023AF7
:1000800097020000938282017390523073502030A7
:1000900073503030735040309301000097020000DD
:1000A000938282F673905230130510001315F501F8
:1000B000634805000F00F00F93011000730000006B
:1000C00097020080938202F4638E020073905210B4
:1000D000B7B20000938292107390223073232030C5
:1000E000E39E62F473500030970200009382420155
:1000F00073901234732540F1730020309300100088
:10010000139700009303100093012000631A7726D1
:100110009300100013971000930320009301300008
:100120006310772693001000139770009303000864
:100130009301400063167724930010001397E000AA
:10014000B743000093015000631C77229300100016
:100150001397F001B70300809301600063127722C8
:100160009300F0FF139700009303F0FF93017000DA
:10017000631877209300F0FF139710009303E0FFBC
:1001800093018000631E771E9300F0FF13977000A9
:10019000930300F8930190006314771E9300F0FF1F
:1001A0001397E000B7C3FFFF9301A000631A771C09
:1001B0009300F0FF1397F001B70300809301B000A4
:1001C0006310771CB7202121938010121397000031
:1001D000B7232121938313129301C0006312771A6E
:1001E000B72021219380101213971000B743424289
:1001F000938323249301D00063147718B72021211F
:100200009380101213977000B79390909383030814
:100210009301E00063167716B72021219380101216
:100220001397E000B74348489301F000631A77142E
:10023000B7202121938010121397F001B70300809B
:1002400093010001631E77129300100093907000D9
:1002500093030008930110016394701213020000CD
:10026000930010001397700013030700130212008D
:1002700093022000E31652FE93030008930120012D
:100280006310731013020000930010001397E00036
:100290001300000013030700130212009302200052
:1002A000E31452FEB743000093013001631A730C4C
:1002B00013020000930010001397F00113000000D8
:1002C0001300000013030700130212009302200022
:1002D000E31252FEB7030080930140016312730AD8
:1002E0001302000093001000139770001302120015
:1002F00093022000E31852FE93030008930150017B
:100300006310770813020000930010001300000030
:100310001397E0001302120093022000E31652FE2E
:10032000B743000093016001631C770413020000CF
:100330009300100013000000130000001397F00159
:100340001302120093022000E31452FEB703008050
:1003500093017001631677029310F001930300007C
:1003600093018001639E700093001002139040017E
:10037000930300009301900163147000631C30002C
:100380000F00F00F638001009391110093E11100C1
:10039000730000000F00F00F9301100073000000C5
:1003A000731000C00000000000000000000000000A
:1003B000000000000000000000000000000000003D
:0403C0000000000039
:1010000000000000000000000000000000000000E0
:1010100000000000000000000000000000000000D0
:1010200000000000000000000000000000000000C0
:1010300000000000000000000000000000000000B0
:081040000000000000000000A8
:040000058000000077
:00000001FF
