:0200000480007A
:100000006F00C004732F2034930F8000630AFF0336
:10001000930F90006306FF03930FB0006302FF038A
:10002000170F0080130F0FFE63040F0067000F000F
:10003000732F203463540F006F00400093E19153FD
:10004000171F000023203FFC6FF09FFF732540F136
:1000500063100500970200009382020173905230F2
:1000600073500018970200009382C20173905230BF
:100070009302F0FF7390023B9302F0017390023AF7
:1000800097020000938282017390523073502030A7
:1000900073503030735040309301000097020000DD
:1000A000938282F673905230130510001315F501F8
:1000B000634805000F00F00F93011000730000006B
:1000C00097020080938202F4638E020073905210B4
:1000D000B7B20000938292107390223073232030C5
:1000E000E39E62F473500030372500007320053022
:1000F00073503000970200009382420173901234D3
:10010000732540F173002030930120001725000073
:10011000130545EF8326050013052000537005D015
:1001200073101000530500E0631AD50693013000E8
:1001300017250000130545ED832605001305E0FF94
:10014000537005D073101000530500E06318D504F8
:100150009301400017250000130545EB8326050099
:1001600013052000537015D073101000530500E0E4
:100170006316D5029301500017250000130545E9C9
:10018000832605001305E0FF537015D0731010008F
:10019000530500E06314D500631C30000F00F00F1E
:1001A000638001009391110093E11100730000003E
:1001B0000F00F00F9301100073000000731000C0D7
:0401C000000000003B
:1010000000000000000000000000000000000000E0
:1010100000000000000000000000000000000000D0
:1010200000000000000000000000000000000000C0
:1010300000000000000000000000000000000000B0
:081040000000000000000000A8
:1020000000000040000000C0000000400000804FC1
:040000058000000077
:00000001FF
