:0200000480007A
:100000006F00C004732F2034930F8000630AFF0336
:10001000930F90006306FF03930FB0006302FF038A
:10002000170F0080130F0FFE63040F0067000F000F
:10003000732F203463540F006F00400093E19153FD
:10004000171F000023203FFC6FF09FFF732540F136
:1000500063100500970200009382020173905230F2
:1000600073500018970200009382C20173905230BF
:100070009302F0FF7390023B9302F0017390023AF7
:1000800097020000938282017390523073502030A7
:1000900073503030735040309301000097020000DD
:1000A000938282F673905230130510001315F501F8
:1000B000635805000F00F00F93011000730000005B
:1000C00097020080938202F4638E020073905210B4
:1000D000B7B200009B8292107390223073232030BD
:1000E000E39E62F473500030970200009382420155
:1000F00073901234732540F1730020309300000098
:10010000130100003B87204093030000930120006F
:100110006316774A93001000130110003B872040BC
:100120009303000093013000631A77489300300076
:10013000130170003B8720409303C0FF93014000F0
:10014000631E7746930000003781FFFF3B87204006
:10015000B78300009301500063127746B700008018
:10016000130100003B872040B7030080930160002B
:1001700063167744B70000803781FFFF3B8720403C
:10018000B783008093017000631A774293000000E8
:10019000378100001B01F1FF3B872040B783FFFF41
:1001A0009B83130093018000631A7740B70000809F
:1001B0009B80F0FF130100003B872040B7030080C5
:1001C0009B83F3FF93019000631A773EB700008092
:1001D0009B80F0FF378100001B01F1FF3B8720402F
:1001E000B783FF7F9301A000631A773CB7000080BC
:1001F000378100001B01F1FF3B872040B783FF7F61
:100200009B8313009301B000631A773AB700008014
:100210009B80F0FF3781FFFF3B872040B783008042
:100220009B83F3FF9301C000631A773893000000AB
:100230001301F0FF3B872040930310009301D0008F
:10024000631E77369300F0FF130110003B872040B8
:100250009303E0FF9301E000631277369300F0FF11
:100260001301F0FF3B872040930300009301F0004F
:10027000631677349300D0001301B000BB80204098
:100280009303200093010001639A70329300E00011
:100290001301B0003B812040930330009301100113
:1002A000631E71309300D000BB80104093030000A8
:1002B0009301200163947030130200009300D0007A
:1002C0001301B0003B872040130307001302120004
:1002D00093022000E31452FE9303200093013001A7
:1002E000631E732C130200009300E0001301B000A2
:1002F0003B87204013000000130307001302120085
:1003000093022000E31252FE930330009301400158
:100310006316732A130200009300F0001301B0006B
:100320003B87204013000000130000001303070068
:100330001302120093022000E31052FE93034000C8
:1003400093015001631C7326130200009300D00038
:100350001301B0003B8720401302120093022000DB
:10036000E31652FE93032000930160016318772483
:10037000130200009300E0001301B000130000001E
:100380003B8720401302120093022000E31452FE28
:10039000930330009301700163127722130200006F
:1003A0009300F0001301B0001300000013000000E0
:1003B0003B8720401302120093022000E31252FEFA
:1003C0009303400093018001631A771E130200001B
:1003D0009300D000130000001301B0003B872040C1
:1003E0001302120093022000E31452FE9303200034
:1003F000930190016314771C130200009300E00046
:10040000130000001301B000130000003B872040E0
:100410001302120093022000E31252FE93033000F5
:100420009301A001631C7718130200009300F000F1
:1004300013000000130000001301B0003B872040B0
:100440001302120093022000E31252FE93034000B5
:100450009301B00163147716130200001301B0007A
:100460009300D0003B87204013021200930220002B
:10047000E31652FE930320009301C001631077142A
:10048000130200001301B0009300E000130000000D
:100490003B8720401302120093022000E31452FE17
:1004A000930330009301D001631A77101302000008
:1004B0001301B0009300F0001300000013000000CF
:1004C0003B8720401302120093022000E31252FEE9
:1004D000930340009301E0016312770E13020000C2
:1004E0001301B000130000009300D0003B872040B0
:1004F0001302120093022000E31452FE9303200023
:100500009301F001631C770A130200001301B0008D
:10051000130000009300E000130000003B87204020
:100520001302120093022000E31252FE93033000E4
:100530009301000263147708130200001301B00056
:1005400013000000130000009300F0003B872040E0
:100550001302120093022000E31252FE93034000A4
:1005600093011002631C7704930010FF3B011040BD
:100570009303F000930120026312710493000002C0
:100580003B81004093030002930130026318710223
:10059000BB0000409303000093014002639070028F
:1005A000930000011301E0013B8020409303000011
:1005B0009301500263147000631C30000F00F00FB1
:1005C000638001009391110093E11100730000001A
:1005D0000F00F00F9301100073000000731000C0B3
:1005E000000000000000000000000000000000000B
:1005F00000000000000000000000000000000000FB
:0406000000000000F6
:1010000000000000000000000000000000000000E0
:1010100000000000000000000000000000000000D0
:1010200000000000000000000000000000000000C0
:1010300000000000000000000000000000000000B0
:081040000000000000000000A8
:040000058000000077
:00000001FF
